:020000040800F2
:1000000000020020A1010008E5110008614B010871
:10001000E5110008E5110008E5110008E5110008E8
:10002000E5110008E5110008E5110008991800081D
:10003000E5110008E5110008E5110008E5110008C8
:10004000E51100086D350008F13500081D3600087F
:10005000E5110008E5110008A1330008CD330008C0
:10006000F93300082534000851340008452B0008F6
:100070006D2B0008992B0008C52B0008F12B0008F8
:100080001D2C0008492C0008717A0008E5110008B1
:10009000E5110008E5110008E51100087D340008AD
:1000A000E5110008593A0008E5110008E5110008BB
:1000B0001D2E0008753C00086D3A0008E511000887
:1000C000E5110008E5110008E5110008E511000838
:1000D000E5110008113D0008E5110008E5110008D0
:1000E000ED34000899350008C5350008E511000811
:1000F000E5110008E5110008E5110008E511000808
:10010000E5110008E5110008E5110008E5110008F7
:10011000E5110008E5110008E5110008E5110008E7
:10012000752C00089D2C0008C92C0008F52C00082F
:10013000212D0008E5110008E5110008E51100086F
:1001400049360008A536000805370008E511000803
:10015000E5110008E5110008E5110008E5110008A7
:10016000E5110008E5110008E5110008F541000857
:10017000E5110008E5110008E5110008E511000887
:10018000E5110008E5110008E5110008E511000877
:10019000E5110008E5110008E5110008E511000867
:1001A00072B6344880F3098840F20000CCF20000B7
:1001B0004EF63471CEF200010860BFF34F8FBFF3EB
:1001C0006F8F40F20000C0F2F0004EF68851CEF280
:1001D00000010860BFF34F8FBFF36F8F4FF0000037
:1001E000E1EE100A4EF63C71CEF2000108600620E6
:1001F00080F31488BFF36F8F00F0D2FF04F0A0F8F3
:100200004FF055301C491D4A91423CBF41F8040B48
:10021000FAE71B49174A91423CBF41F8040BFAE741
:100220001849194A194B9A423EBF51F8040B42F83B
:10023000040BF8E700201649164A91423CBF41F8EA
:10024000040BFAE700F0B2FF00F0ACFF124C134DC4
:10025000AC4203DA54F8041B8847F9E714F0C8F9F4
:100260000F4C104DAC4203DA54F8041B8847F9E7F1
:1002700000F09ABF8006002000000020000200204D
:100280000002002084B20208800600203C150020F5
:100290004015002028800020A0010008A0010008CF
:1002A000A0010008A00100082DE9F04F2DED108AF3
:1002B000C1F80CD0C3689D46BDEC108ABDE8F08F34
:1002C000002383F311882846A047002001F060FA3C
:1002D00001F0B0F900DFFEE781F0004102E000BF6D
:1002E00083F0004330B54FEA41044FEA430594EAF6
:1002F000050F08BF90EA020F1FBF54EA000C55EA31
:10030000020C7FEA645C7FEA655C00F0E2804FEA01
:100310005454D4EB5555B8BF6D420CDD2C4480EAE3
:10032000020281EA030382EA000083EA010180EA13
:10033000020281EA0303362D88BF30BD11F0004F61
:100340004FEA01314FF4801C4CEA113102D0404297
:1003500061EB410113F0004F4FEA03334CEA1333D2
:1003600002D0524263EB430394EA050F00F0A780EA
:10037000A4F10104D5F1200E0DDB02FA0EFC22FAE5
:1003800005F2801841F1000103FA0EF2801843FAD9
:1003900005F359410EE0A5F120050EF1200E012ACA
:1003A00003FA0EFC28BF4CF0020C43FA05F3C01808
:1003B00051EBE37101F0004507D54FF0000EDCF181
:1003C000000C7EEB00006EEB0101B1F5801F1BD32A
:1003D000B1F5001F0CD349085FEA30004FEA3C0C2E
:1003E00004F101044FEA445212F5800F80F09A8024
:1003F000BCF1004F08BF5FEA500C50F1000041EB28
:10040000045141EA050130BD5FEA4C0C404141EB2B
:10041000010111F4801FA4F10104E9D191F0000F52
:1004200004BF01460020B1FA81F308BF2033A3F1D5
:100430000B03B3F120020CDA0C3208DD02F1140CCC
:10044000C2F10C0201FA0CF021FA02F10CE002F107
:100450001402D8BFC2F1200C01FA02F120FA0CFC00
:10046000DCBF41EA0C019040E41AA2BF01EB045149
:10047000294330BD6FEA04041F3C1CDA0C340EDC47
:1004800004F11404C4F1200220FA04F001FA02F38A
:1004900040EA030021FA04F345EA030130BDC4F148
:1004A0000C04C4F1200220FA02F001FA04F340EA3D
:1004B0000300294630BD21FA04F0294630BD94F0EE
:1004C000000F83F4801306BF81F480110134013DD5
:1004D0004EE77FEA645C18BF7FEA655C29D094EA46
:1004E000050F08BF90EA020F05D054EA000C04BFC4
:1004F0001946104630BD91EA030F1EBF00210020AF
:1005000030BD5FEA545C05D14000494128BF41F04D
:10051000004130BD14F580043CBF01F5801130BDB1
:1005200001F0004545F0FE4141F470014FF000003C
:1005300030BD7FEA645C1ABF194610467FEA655CED
:100540001CBF0B46024650EA013406BF52EA03358F
:1005500091EA030F41F4002130BD00BF90F0000F7D
:1005600004BF0021704730B54FF4806404F13204B9
:100570004FF000054FF0000150E700BF90F0000F72
:1005800004BF0021704730B54FF4806404F1320499
:1005900010F0004548BF40424FF000013EE700BF69
:1005A00042004FEAE2014FEA31014FEA02701FBFF9
:1005B00012F07F4393F07F4F81F06051704732F02B
:1005C0007F4208BF704793F07F4F04BF41F4002182
:1005D000704730B54FF4607401F0004521F00041E0
:1005E0001CE700BF50EA010208BF704730B54FF06A
:1005F00000050AE050EA010208BF704730B511F06B
:10060000004502D5404261EB41014FF4806404F1A2
:1006100032045FEA915C3FF4D8AE4FF003025FEA28
:10062000DC0C18BF03325FEADC0C18BF033202EBAC
:10063000DC02C2F1200300FA03FC20FA02F001FA06
:1006400003FE40EA0E0021FA02F11444BDE600BFA9
:1006500070B54FF0FF0C4CF4E06C1CEA11541DBF58
:100660001CEA135594EA0C0F95EA0C0F00F0DEF823
:100670002C4481EA030621EA4C5123EA4C5350EA08
:10068000013518BF52EA033541F4801143F4801359
:1006900038D0A0FB02CE4FF00005E1FB02E506F0EA
:1006A0000042E0FB03E54FF00006E1FB03569CF03F
:1006B000000F18BF4EF0010EA4F1FF04B6F5007F45
:1006C00064F5407404D25FEA4E0E6D4146EB0606B7
:1006D00042EAC62141EA55514FEAC52040EA5E5040
:1006E0004FEACE2EB4F1FD0C88BFBCF5E06F1ED8EA
:1006F000BEF1004F08BF5FEA500E50F1000041EB21
:10070000045170BD06F0004646EA010140EA0200CD
:1007100081EA0301B4EB5C04C2BFD4EB0C0541EAEF
:10072000045170BD41F480114FF0000E013C00F304
:10073000AB8014F1360FDEBF002001F0004170BD28
:10074000C4F10004203C35DA0C341BDC04F1140441
:10075000C4F1200500FA05F320FA04F001FA05F2CD
:1007600040EA020001F0004221F0004110EBD3709A
:1007700021FA04F642EB06015EEA430E08BF20EAC6
:10078000D37070BDC4F10C04C4F1200500FA04F369
:1007900020FA05F001FA04F240EA020001F00041FB
:1007A00010EBD37041F100015EEA430E08BF20EA6E
:1007B000D37070BDC4F1200500FA05F24EEA020EB6
:1007C00020FA04F301FA05F243EA020321FA04F0E5
:1007D00001F0004121FA04F220EA020000EBD3709C
:1007E0005EEA430E08BF20EAD37070BD94F0000F9C
:1007F0000FD101F00046400041EB010111F4801FD0
:1008000008BF013CF7D041EA060195F0000F18BF80
:10081000704703F00046520043EB030313F4801FBC
:1008200008BF013DF7D043EA0603704794EA0C0F76
:100830000CEA135518BF95EA0C0F0CD050EA41068C
:1008400018BF52EA4306D1D181EA030101F0004109
:100850004FF0000070BD50EA410606BF1046194631
:1008600052EA430619D094EA0C0F02D150EA01363D
:1008700013D195EA0C0F05D152EA03361CBF10467E
:1008800019460AD181EA030101F0004141F0FE411D
:1008900041F470014FF0000070BD41F0FE4141F4A1
:1008A000780170BD70B54FF0FF0C4CF4E06C1CEAA1
:1008B00011541DBF1CEA135594EA0C0F95EA0C0F56
:1008C00000F0A7F8A4EB050481EA030E52EA033511
:1008D0004FEA013100F088804FEA03334FF0805532
:1008E00045EA131343EA12634FEA022245EA11155F
:1008F00045EA10654FEA00260EF000419D4208BF10
:10090000964244F1FD0404F5407402D25B084FEABC
:100910003202B61A65EB03055B084FEA32024FF468
:1009200080104FF4002CB6EB020E75EB030E22BFC5
:10093000B61A754640EA0C005B084FEA3202B6EB85
:10094000020E75EB030E22BFB61A754640EA5C0034
:100950005B084FEA3202B6EB020E75EB030E22BFC4
:10096000B61A754640EA9C005B084FEA3202B6EBC5
:10097000020E75EB030E22BFB61A754640EADC0084
:1009800055EA060E18D04FEA051545EA16754FEAE6
:1009900006164FEAC30343EA52734FEAC2025FEA04
:1009A0001C1CC0D111F4801F0BD141EA00014FF093
:1009B00000004FF0004CB6E711F4801F04BF014364
:1009C0000020B4F1FD0C88BFBCF5E06F3FF6AFAE80
:1009D000B5EB030C04BFB6EB020C5FEA500C50F110
:1009E000000041EB045170BD0EF0004E4EEA113193
:1009F00014EB5C04C2BFD4EB0C0541EA045170BD9A
:100A000041F480114FF0000E013C90E645EA060EDD
:100A10008DE60CEA135594EA0C0F08BF95EA0C0F0B
:100A20003FF43BAF94EA0C0F0AD150EA01347FF453
:100A300034AF95EA0C0F7FF425AF104619462CE72A
:100A400095EA0C0F06D152EA03353FF4FDAE10468D
:100A5000194622E750EA410618BF52EA43067FF4DE
:100A6000C5AE50EA41047FF40DAF52EA43057FF46E
:100A7000EBAE12E74FEA4102B2F1E04324BFB3F517
:100A8000001CDCF1FE5C0DD901F0004C4FEAC00205
:100A90004CEA5070B2F1004F40EB830008BF20F0E9
:100AA0000100704711F0804F21D113F13872BCBFA3
:100AB00001F00040704741F480114FEA5252C2F1F8
:100AC0001802C2F1200C10FA0CF320FA02F018BF41
:100AD00040F001004FEAC1234FEAD32303FA0CFC94
:100AE00040EA0C0023FA02F34FEA4303CCE77FEA23
:100AF000625307D150EA01331EBF4FF0FE4040F46D
:100B00004000704701F0004040F0FE4040F400001B
:100B1000704700BF80F0004002E000BF81F000415C
:100B200042001FBF5FEA410392EA030F7FEA226C93
:100B30007FEA236C6AD04FEA1262D2EB1363C1BF23
:100B4000D218414048404140B8BF5B42192B88BF92
:100B5000704710F0004F40F4000020F07F4018BFB5
:100B6000404211F0004F41F4000121F07F4118BFD5
:100B7000494292EA030F3FD0A2F1010241FA03FC7D
:100B800010EB0C00C3F1200301FA03F100F0004365
:100B900002D5494260EB4000B0F5000F13D3B0F12D
:100BA000807F06D340084FEA310102F10102FE2A9C
:100BB00051D2B1F1004F40EBC25008BF20F001000C
:100BC00040EA03007047490040EB000010F4000FBA
:100BD000A2F10102EDD1B0FA80FCACF1080CB2EB4D
:100BE0000C0200FA0CF0AABF00EBC25052421843AC
:100BF000BCBFD0401843704792F0000F81F4000151
:100C000006BF80F400000132013BB5E74FEA410323
:100C10007FEA226C18BF7FEA236C21D092EA030F8F
:100C200004D092F0000F08BF0846704790EA010F09
:100C30001CBF0020704712F07F4F04D1400028BF36
:100C400040F00040704712F100723CBF00F5000018
:100C5000704700F0004343F0FE4040F4000070474E
:100C60007FEA226216BF08467FEA236301464202FA
:100C700006BF5FEA412390EA010F40F4800070470D
:100C80004FF0000304E000BF10F0004348BF4042B3
:100C90005FEA000C08BF704743F0964301464FF0EF
:100CA00000001CE050EA010208BF70474FF000034B
:100CB0000AE000BF50EA010208BF704711F000438C
:100CC00002D5404261EB41015FEA010C02BF84465C
:100CD0000146002043F0B64308BFA3F18053A3F5BB
:100CE0000003BCFA8CF2083AA3EBC25310DB01FA02
:100CF00002FC634400FA02FCC2F12002BCF1004F86
:100D000020FA02F243EB020008BF20F00100704716
:100D100002F1200201FA02FCC2F1200250EA4C006A
:100D200021FA02F243EB020008BF20EADC707047B0
:100D30007BB972B90029BEBF00204FF0004106E028
:100D400008BF00281CBF6FF000414FF0FF3000F0DB
:100D5000FDB9ADF1080C6DE904CE002909DB002BCB
:100D60001ADB00F08BF8DDF804E0DDE9022304B0C3
:100D70007047404261EB4101002B1BDB00F07EF825
:100D8000DDF804E0DDE9022304B0404261EB4101FB
:100D9000524263EB43037047524263EB430300F05C
:100DA0006DF8DDF804E0DDE9022304B0404261EBB8
:100DB00041017047524263EB430300F05FF8DDF8F6
:100DC00004E0DDE9022304B0524263EB43037047C1
:100DD00053B94AB9002908BF00281CBF4FF0FF31A2
:100DE0004FF0FF3000F0B2B9ADF1080C6DE904CE60
:100DF00000F044F8DDF804E0DDE9022304B07047B8
:100E0000D0B5FFF7CDFB00220B4B06460F46FFF790
:100E10001FFC00F09DF90446FFF7A0FB0022074BE2
:100E2000FFF716FC02460B4630463946FFF758FAE4
:100E300000F08EF92146D0BD0000F03D0000F041E9
:100E4000D0B500220B4B06460F46FFF701FC00F021
:100E50007FF90446FFF782FB0022074BFFF7F8FB00
:100E600002460B4630463946FFF73AFA00F070F971
:100E70002146D0BD0000F03D0000F0412DE9F047D3
:100E8000089E04468846002B40F085808A4215461D
:100E900048D9B2FA82F24AB1C2F1200701FA02F34C
:100EA00020FA07F7954047EA030894404FEA154EA9
:100EB000230CB8FBFEF71FFA85FC0EFB178843EAEC
:100EC000084307FB0CF1994209D9EB1807F1FF30F1
:100ED00080F0E380994240F2E080023F2B445B1AAD
:100EE000A4B2B3FBFEF00EFB103344EA034400FB54
:100EF0000CFCA44509D92C1900F1FF3380F0CB80FC
:100F0000A44540F2C88002382C4440EA0740A4EBD4
:100F10000C0400271EB1D4400023C6E90043394623
:100F2000BDE8F087002A53D0B2FA82F2002A40F0DE
:100F3000B680491B4FEA154E1FFA85F80127B1FB11
:100F4000FEFC230C0EFB1C1143EA014308FB0CF1D1
:100F5000994207D9EB180CF1FF3002D2994200F206
:100F6000EC808446591AA3B2B1FBFEF00EFB1014BC
:100F700043EA044408FB00F8A04507D92C1900F106
:100F8000FF3302D2A04500F2DC801846A4EB08042F
:100F900040EA0C40BEE78B4208D9002E78D00027EB
:100FA000C6E9000138463946BDE8F087B3FA83F751
:100FB0007FB98B4202D3824200F2BD80841A61EB7A
:100FC000030301209846002EA9D0C6E90048A6E7F1
:100FD000FFDEC7F12005BB4022FA05FC4CEA030CFA
:100FE00001FA07F420FA05F821FA05F34FEA1C4E3E
:100FF00048EA0404B3FBFEF9210C0EFB19331FFA77
:101000008CF841EA034309FB08FA9A4502FA07F211
:1010100000FA07F10BD91CEB030309F1FF3080F054
:1010200088809A4540F28580A9F102096344A3EBC8
:101030000A03A4B2B3FBFEF00EFB103344EA0344F0
:1010400000FB08F8A04508D91CEB040400F1FF33AD
:101050006BD2A04569D90238644440EA0940A4EB48
:101060000804A0FB02894C45C6464B4654D351D0D8
:10107000002E69D0B1EB0E0264EB030404FA05F50F
:1010800022FA07F3FC401D43C6E90054002746E757
:101090003746304643E7184637E707461FE7C2F1B1
:1010A000200320FA03F7954001FA02F021FA03F336
:1010B0004FEA154E3843010CB3FBFEF71FFA85F8D3
:1010C0000EFB173341EA034107FB08F38B4204FA96
:1010D00002F407D9691807F1FF3C28D28B4226D9C0
:1010E000023F2944CB1A81B2B3FBFEF00EFB103352
:1010F00041EA034100FB08F38B4207D9691800F16C
:10110000FF3C10D28B420ED902382944C91A40EA5A
:10111000074714E74145ABD2B8EB020E69EB0C026E
:1011200001381346A4E76046F0E7184695E767469E
:10113000D8E781467BE7384645E7ACF1020C2B4403
:1011400010E702382C4421E73746E8E6704700BF35
:101150004A0011D212F5001211D20DD56FF4787336
:10116000B3EB62520ED44FEAC12343F0004343EA8B
:10117000505323FA02F070474FF00000704750EAD6
:10118000013002D14FF0FF3070474FF00000704740
:10119000034613F8012B002AFBD1181A01387047B7
:1011A000704700BF704700BFFEE700BF0B4A09E071
:1011B000002143F8041BD1689942F9D81032084B3A
:1011C0009A4209D21068536891689942F3D950F84D
:1011D000041B43F8041BF7E7704700BF701E0208AA
:1011E000F01E0208FEE700BFFEE700BF10B500F0EA
:1011F0002BF900F09BF8174C80221749204600F08D
:101200003BFA44F8180C154BC361012380F82030D9
:10121000134B00209860D96821F4E0610904090C9F
:10122000104A0A43DA601049CA6842F08072CA6004
:101230000E490A6842F001020A601022DA77202281
:1012400083F8222080F3118862B6094800F04AFA38
:1012500010BD00BFB8160020281F020800020020A1
:1012600000ED00E00003FA05F0ED00E0001000E002
:10127000F01E020872B6014BD862FEE78816002005
:1012800038B51D4BDC694FF08043586A0CE00023F1
:1012900083F311882069A847202383F31188164B14
:1012A000DC694FF08043586AA368134A916A421A76
:1012B000934211D8104A0B449362216802F11C0337
:1012C0004B602168D161E5680021E160D2699A42F2
:1012D000DDD100F053FBDAE7074A52F81C4F944285
:1012E00006D00B441B1A012B03D9184400F04CFB09
:1012F00038BD0223F9E700BF88160020401A521AB1
:1013000090422CBF00200120704700BF38B5064B2B
:101310005C680519044B58682A462146FFF7EEFF22
:101320000028F7D138BD00BF001000E0054B03F1E5
:101330001C02DA611A624FF0FF325A6200229A628E
:10134000704700BF8816002038B505460361C260AB
:101350004FF08043586A012913D91A4B53F81C2FB8
:101360009A4210D00844174B9C6A041B9368A3420E
:1013700017D8144BDB699A68A24215D2A41A1B68CD
:10138000F9E70221E9E70F4B9862DD611D6203F185
:101390001C022A606A60A960986A084400F0E6FAB4
:1013A0000FE000F0F1FAE4E72B605A686A6015601C
:1013B0005D60AC609A68141B9C60024B4FF0FF327A
:1013C0005A6238BD8816002008B51D4BDB69834280
:1013D00010D0436802681A60036842685A600023AC
:1013E000C3600368174A934203D081689A680A442D
:1013F0009A6008BD0168124A134643F81C1F4B60EF
:101400000021C160D2699A4215D0816893680B446B
:1014100093604FF08043586A094A936AC11AD269AF
:1014200092688A42E5D91B1A1344012B06D9184445
:1014300000F0AAFADDE700F0A1FADAE70223F6E706
:1014400088160020A4160020034B1B605B6000225E
:101450009A601B615B61704788160020002380F84A
:101460002030064B1B68996882689142FAD203606B
:101470005A68426010605860704700BF88160020AC
:1014800008B5202383F3118890F82030032B0ED069
:10149000042B10D043B14FF0FF334362FFF7DEFF60
:1014A000002383F3118808BD83F31188FBE7436AA7
:1014B00000221A60EFE742680368136042685A60CE
:1014C000E9E700BF002380F82030064B1B689968CD
:1014D00082689142FAD803605A684260106058608E
:1014E000704700BF8816002010B50E4B9C6984F829
:1014F00020001A68116819604B609A61012382F814
:101500002030EFF30983643BE269934205D321461F
:10151000044B9869FEF7C8FE10BD0348FFF7AAFE0A
:10152000F5E700BF88160020101F020810B586B02E
:101530000446B1F1FF3F12D00A4B9B690A4A01A849
:10154000FFF702FF2046FFF7CFFF049B13B101A86E
:10155000FFF73AFF034B9B69586A06B010BDFFF7CF
:10156000C3FFF7E7881600208114000838B5044649
:10157000104B98696162A26883689A4203D820463A
:10158000FFF76CFF38BDFFF769FF0546094B9C610B
:10159000012384F82030EFF30983643BC26993424E
:1015A00004D329462046FEF77FFEEBE70248FFF70B
:1015B00061FEF6E788160020101F0208044B1A6827
:1015C00090689B699B68984294BF002001207047F7
:1015D0008816002010B50E4B98691A6811681960BA
:1015E0004B609A61012382F82030FFF76BFF0446BD
:1015F000EFF30983643BC269934205D32146044B50
:101600009869FEF751FE10BD0248FFF733FEF5E77B
:1016100088160020101F020808B5054B1A6892684A
:101620009B699B689A4200D808BDFFF7D3FFFBE790
:101630008816002010B50E4B98691A681168196059
:101640004B609A61012382F82030FFF73BFF04468C
:10165000EFF30983643BC269934205D32146044BEF
:101660009869FEF721FE10BD0248FFF703FEF5E77B
:1016700088160020101F02088260022280F82020B5
:10168000002280F82120012280F822208161034A73
:1016900002615169416108615061704788160020FC
:1016A000884202D200F8012BFAE7704708B5836838
:1016B000426843F80C2CA3F18C0243F81C2C0169FE
:1016C00043F84C1C416943F8481C054943F82C1C5D
:1016D000C2680168A3F12800FFF7CEFF08BD00BF74
:1016E000C102000810B50446552281684068FFF722
:1016F000D7FF202383F311882046FFF7D7FF044646
:101700000021FFF733FF002383F31188204610BD2B
:10171000F8B505460C4616461F4655224118FFF7F8
:10172000BFFF202383F31188A4F128002844C5615A
:10173000A0F16403C36040F8247C069A40F8202C92
:10174000074A40F8042C32460649FFF795FF044645
:101750000021FFF70BFF002383F311882046F8BD1B
:10176000C1020008201F020808B5084B9B69586297
:1017700093F822202AB95A69196911611A695B69BB
:1017800053610F20FFF7B0FE08BD00BF8816002090
:1017900008B5202383F31188FFF7E6FF08BD00BFDB
:1017A00008B50146202383F311880820FFF7BEFE09
:1017B000002383F3118808BD10B5054CA3690360AD
:1017C00058620320FFF790FEA369586A10BD00BF5E
:1017D00088160020026842B108B503460020186050
:1017E00051621046FFF73AFE08BD704702683AB1F1
:1017F00008B50346002018601046FFF7B7FE08BD85
:10180000704700BF59B108B5064B9B691860426824
:101810005A60136043600420FFF788FE08BD4FF054
:10182000FF307047881600200268904209D008B542
:10183000034610681860436051621046FFF70EFEC1
:1018400008BD704738B504460D462068844206D06E
:10185000036823605C604562FFF700FEF5E738BD72
:10186000202383F31188034B1869002383F3118825
:10187000704700BF88160020202383F31188006979
:10188000044B984203D0002383F311887047002053
:10189000F9E700BF8816002080B400AF084A5368FB
:1018A00023F001035360EFF30983683383F309885E
:1018B000002383F31188BD465DF8047B704700BFA9
:1018C00030EF00E098B500AF202383F31188124B6E
:1018D0005B6813F4006F03D1002383F3118898BD74
:1018E000F1EE103AEFF30984A4F168034FF080722F
:1018F00044F84C2C094AD26844F8082C83F3098830
:10190000FFF75CFE18B1064B44F8503CE7E7054B87
:1019100044F8503CE3E700BF00ED00E030EF00E0AA
:10192000D1020008D402000808B501F097F80C486D
:1019300001F04CFF00F0FEFA00F058FB00F06EFBE7
:1019400000F09EFB00F0FCFB00F0DAFE00F0BEFCB5
:1019500001F03CF802F01CFD00F004F808BD00BFE7
:10196000AC20020808B501F06FFA08BD4FF08043C3
:10197000586300221A610222DA6070474FF08043F8
:101980000022DA60704700BF4FF080435863704711
:101990008368013B83608269036913440361426980
:1019A000934201D3036A0361704700BFC3681960A3
:1019B0008368013383608269C3681344C3604269EA
:1019C000934201D3036AC360704700BF08B58368C0
:1019D0000BB1002008BDFFF715FFFBE708B5C26893
:1019E00003699A4203D0002333B9002008BD8368FD
:1019F000002BF9D00123F7E7FFF704FFF6E700BF5C
:101A000030B400604060002484600161C160043231
:101A100003FB021545618261C36101624462846215
:101A2000029BC362039B036330BC704708B500226E
:101A30008260016A0161C160426282626FF00101ED
:101A4000FFF700FF08BD00BF10B50446FFF7AEFF6B
:101A500000212046FFF7E8FE10BD00BF10B5044688
:101A6000FFF7B4FF024628B921690B1D63620968BC
:101A70000B44A362104610BD10B50446FFF788FF63
:101A800000236362E36A0BB12046984710BD00BF94
:101A900038B50446202383F31188436A5BB1636A37
:101AA00013F8015B6362A26A93420DD2002383F3B1
:101AB0001188284638BDFFF7D1FF05460028EED033
:101AC000002383F31188F4E72046FFF7D5FFEDE705
:101AD000C3680269934203D0002232B9181D7047CF
:101AE0008268002AF9D00122F7E70020704700BF82
:101AF00083682BB103691B680B6000690430704771
:101B00000020704710B50446FFF742FF0021204631
:101B1000FFF78AFE10BD00BF10B50446FFF75EFF59
:101B2000024628B9E368191D6162A1690B44A362EA
:101B3000104610BD10B50446FFF738FF002363625E
:101B4000E36A0BB12046984710BD00BF2DE9F8436A
:101B50000446884691461F46202383F311880026B9
:101B60001DE0B8F1000F0AD008992046FFF7D4FF16
:101B7000C0B1002383F311883046BDE8F88308998B
:101B80002046FFF76BFFF3E72A460146484620F060
:101B900017F916E02046FFF76FFFB742E9D9636AED
:101BA000002BDED0A36A606A1B1ABD1B9D4200D3C6
:101BB0001D46B8F1000FE7D02A4609EB060120F0D8
:101BC000FFF8636A2B4463622E44A26A9342E4D313
:101BD000B8F1000FDED0A16904392046FFF7AAFF53
:101BE000DBE700BF00B583B0009313460A4600212F
:101BF000FFF7ACFF03B05DF804FB00BF38B5044647
:101C00000D46202383F31188436A6BB1636A1D700C
:101C1000636A01336362A26A93420FD2002080F3A9
:101C200011880346184638BD1146FFF775FF034675
:101C30000028EBD0002282F31188F3E7A169043970
:101C40002046FFF777FFE9E700B583B0009313461E
:101C50000A460121FFF77AFF03B05DF804FB00BFDD
:101C600083687BB9416A79B1C368C91A043901D163
:101C70000020704710B50446FFF798FE002363620A
:101C8000012010BD00207047002070470346026904
:101C9000013A0261C068D9694A1CDA61405C59693D
:101CA0008A4201D30022DA61704700BF10B4036991
:101CB00001330361C26883695C1C8461D154826909
:101CC00043699A4201D3002383615DF8044B704756
:101CD00008B503690BB1002008BDFFF793FDFBE7D2
:101CE00008B5026943699A4201D2002008BDFFF796
:101CF00089FDFBE72DE9F8430669964200D31646B5
:101D0000B6B188460446012E15D0D0F81490C569A6
:101D1000A9EB0507BE4213D2C168324629444046AA
:101D200020F04EF8E3693344E36123699B1B236190
:101D30003046BDE8F883FFF7A9FF88F80000F7E711
:101D4000C1683A462944404620F03AF8A5EB090517
:101D50007219E16808EB070020F032F8E561E1E76D
:101D60002DE9F843476904693C1B944200D31446AB
:101D70009CB189460546012C12D08669A7EB06085E
:101D8000444511D2C0682246304420F019F8AB69AE
:101D90002344AB612B6923442B612046BDE8F883C3
:101DA0000978FFF783FFF8E7C0684246304420F027
:101DB00007F8F61BA21909EB0801E86820F000F803
:101DC000AE61E4E710B40060406000240461C160CB
:101DD000C4618461426183605DF8044B704700BF59
:101DE00008B50022C261826102616FF00101FFF754
:101DF00029FD08BD026943699A4209D210B504461B
:101E0000FFF754FF00212046FFF70EFD002010BD14
:101E10004FF0FF30704700BF38B50546202383F3ED
:101E20001188FFF755FF044620B1002383F3118882
:101E3000204638BD2846FFF729FF0446AB68002B33
:101E4000F3D028469847F0E72DE9F8430546894640
:101E500016469846202383F31188002402E03C4470
:101E6000A64211D941462846FFF732FF60B9321B1E
:101E700009EB04012846FFF73DFF0746AB68002B3E
:101E8000EDD028469847EAE7002383F311882046DF
:101E9000BDE8F88370B505460E46202383F311880C
:101EA0001146FFF71DFF044620B1002383F311887C
:101EB000204670BD31462846FFF7F8FEAB68002B80
:101EC000F3D028469847F0E738B503694BB104468C
:101ED000FFF7DCFE054600212046FFF7A5FC28465B
:101EE00038BD4FF0FF35FAE72DE9F843054689463E
:101EF00016469846202383F31188002402E03C44D0
:101F0000A64211D941462846FFF7EAFE60B9321BC6
:101F100009EB04012846FFF723FF0746AB68002BB7
:101F2000EDD028469847EAE7002383F3118820463E
:101F3000BDE8F88308B500F0DFFF08BD012303709A
:101F4000002343608360C36003614361704700BF47
:101F500010B50446202383F31188416001F010F886
:101F600002232370002383F3118810BD10B5826013
:101F7000C36001610323037001F056F810BD00BF78
:101F800010B5202484F31188FFF7F0FF002383F3BA
:101F9000118810BD202383F311880378022B03D10D
:101FA000002383F31188704710B5044601F08AF8C6
:101FB000002323612046022300F8143B6FF0010147
:101FC000FFF714FC002383F3118810BD38B50446D5
:101FD000202585F31188FFF7C9FF04F11400FFF7EE
:101FE000EBFB002383F3118838BD00BF08B501F077
:101FF000F1F808BD0123037000234360704700BF60
:1020000010B50446202383F31188416001F0AAF93A
:1020100002232370002383F3118810BD08B501F05B
:102020006DFC08BD0123037000234360704700BFAF
:1020300010B50446202383F31188416001F072FC3F
:1020400002232370002383F3118810BD08B50323F6
:10205000037001F0B9FC08BD08B5202383F3118893
:10206000FFF7F4FF002383F3118808BD10B5044681
:102070000423037001F0CCFC0223237010BD00BFC9
:1020800008B501F0FDFC08BD012303700023436087
:10209000C3600374704700BF10B50446202383F368
:1020A000118841604B68836001F0F8FC0023E36015
:1020B0000222227083F3118810BD00BF38B520239F
:1020C00083F31188012303FA01F4C3682343C36037
:1020D00001F078FD002383F3118838BD10B520236B
:1020E00083F31188012303FA01F2C36823EA020390
:1020F000C36001F075FD002383F3118810BD00BF9C
:1021000008B54FF0FF310830FFF786FE08BD00BF6D
:1021100008B54FF0FF322830FFF7BCFE08BD00BF06
:1021200008B54FF0FF330830FFF78EFE08BD00BF43
:1021300008B54FF0FF332830FFF7D6FE08BD00BFCB
:1021400008B501F0EFFD08BD38B5044615460A4B49
:102150000360012303710B46102200F1480108308F
:10216000FFF730FE2B46102204F1580104F128003D
:10217000FFF728FE38BD00BF401F020810B5044617
:10218000202383F3118801F00BFE02232371002327
:1021900083F3118810BD00BF10B50446202383F3DC
:1021A000118801F019FE0123237104F12800FFF7C3
:1021B00017FE04F10800FFF713FEFFF72DFA0023C6
:1021C00083F3118810BD00BF10B582B0046BD4F842
:1021D00080341A681178042908D12179022905D19F
:1021E0001289197901238B40134201D002B010BD2E
:1021F00001A904F13C00FFF77BFC02460028F5D062
:10220000D4F88004019B0179006800F0D5FAEDE76D
:10221000D0F880341A68117804291BD10179022979
:102220001AD15289597901238B40134201D00120E0
:10223000704710B504460830FFF74AFC024668B103
:10224000D4F880044FF480734179006800F0A0FA5C
:10225000002010BD01207047012070470120F8E7E1
:1022600008B5006BFFF7D4FF08BD00BF08B54FF0FD
:10227000FF310830FFF70CFC08BD00BF08B5D0F8EF
:1022800080341B681B78042B05D14FF0FF323C30A3
:10229000FFF7B4FC08BD6FF00100FBE708B54FF095
:1022A000FF330830FFF79EFC08BD00BF08B5D0F82B
:1022B00080341B681B78042B01D0002008BD4FF030
:1022C000FF333C30FFF7C0FCF8E700BF704700BFAA
:1022D00010B582B004460E4B0360012303710190D8
:1022E0000C4B009302234FF4807200F17001083010
:1022F000FFF786FB0194084B009302234FF4807292
:1023000004F51E7104F13C00FFF77AFB02B010BD2A
:10231000601F020861220008C92100080A68202302
:1023200083F311880B79093302EB830358604B79EF
:10233000113342F823008B791BB1093302EB83027E
:102340005060C0F8801402230371002383F31188C6
:10235000704700BF10B504460830FFF767FB04F173
:102360003C00FFF763FB10BD10B504460830FFF7D3
:102370005DFB04F13C00FFF759FB2046FFF748FFE7
:1023800010BD00BF90F8743003F06003202B01D023
:102390000020704790F87530212B05D0222B0FD0EC
:1023A000202B07D000207047084B83660723C366A5
:1023B00001207047054B83660723C36601207047E1
:1023C00000238366C3660120704700BF800600209B
:1023D000D0F880341A681178042908D101790229CB
:1023E00005D11289197901238B40134200D070471F
:1023F00030B583B0044600F13C052846FFF730FCB9
:1024000008B903B030BD01A92846FFF771FBD4F825
:102410008044019B02462179206800F0CDF9F0E765
:1024200070B582B001F1090300EB83035E68D6B199
:102430000D460446202383F311888B1C00EB830395
:102440005B685B691B6883B901A906F13C00FFF773
:102450004FFB024670B1019B2946204600F0ACF9C3
:10246000002383F3118802B070BD06F13C00FFF732
:1024700049FBE9E7AB1C04EB83035B685A6912680C
:102480001B8A9A42ECD100231A462946204600F0C6
:1024900093F9E5E710B5113150F821409CB12023A4
:1024A00083F31188D4F8802413685279023203EB45
:1024B00082035B689B69596831B92046FFF7A8FE23
:1024C000002383F3118810BD04F10800FFF7BCFA64
:1024D000F3E700BF704700BF38B50446092957D855
:1024E000DFE801F0050C560C56252C563C4200F155
:1024F0007C0383660223C366012038BDB0F87630C2
:10250000012B01D00020F8E7B0F87C3023F0020363
:102510009BB2A0F87C30032904D00023A366E366B5
:102520000120EAE743F00203A0F87C30F5E700233E
:102530008366C366184B03670120DEE743685D6866
:10254000B0F87610B0F87830CAB2090AA84708B3D4
:102550004268A2660368E3660120CEE700F17F03CC
:1025600083660120E066C8E790F8763080F87F3017
:1025700063B10423237063681B6813B102212046F2
:1025800098470023A366E3660120B6E70323F1E73B
:102590000020B2E70020B0E7DD25000829B9044B90
:1025A00083660223C366012070470020704700BF86
:1025B000881F020810B50446002101F071FE0021B9
:1025C000204601F05BFE63681B6813B105212046BD
:1025D0009847062384F8643010BD00BF10B5044648
:1025E000B0F8763080F87E3001F092FC63681B68AA
:1025F00013B10121204698470323237010BD00BF6B
:1026000010B50446B0F8783003F00F0203F08003F1
:102610000C294AD8DFE801F00D29492949494949DF
:10262000494949490700244BA3660223E366012078
:1026300010BD4BB11146204601F0F6FC012808D030
:1026400002280CD00020F3E71146204601F0DAFC06
:10265000F4E71A4BA3660223E3660120E8E7184B70
:10266000A3660223E3660120E2E7B4F87600F0B93E
:10267000FAB1012909D09BB11146204601F010FEA4
:102680000023A366E3660120D2E723B1114620466A
:1026900001F032FEF4E71146204601F013FEEFE7A9
:1026A0001146204601F0EAFDEAE70020C0E70020DD
:1026B000BEE70020BCE700BF881F0208841F020895
:1026C000801F020808B590F8743013F0600F14D121
:1026D00090F8751003F01F03012B08D05AB21AB1FD
:1026E000022B07D0002009E0FFF7F6FE06E0FFF717
:1026F00055FF03E0FFF784FF00E0002008BD00BFA6
:1027000008B501F0D7FB08BD012303700023436027
:10271000062B0BD803F10A0200EB82020021516064
:1027200003F1120240F822100133F1E70023038184
:102730004381704710B50446202383F3118841601C
:10274000002305E09A1C04EB820200215160013352
:10275000072BF7D9204601F0B5FB02232370002395
:1027600083F3118810BD00BF10B58B1C00EB8303F1
:102770005A6053691BB100241C605C609C609369C3
:102780001BB100221A605A609A6001F0CBFB10BDA9
:10279000F8B50E4601248C40A4B247893C434481DD
:1027A000023600EB86056C68A469A26023600023F2
:1027B000636001F063FCF8BDF8B50E4601248C405F
:1027C000A4B207893C430481023600EB86056C689D
:1027D0006469A26023600023636001F061FCF8BDBE
:1027E00010B50446022303700023A0F87C3080F863
:1027F0007E3080F87F300381438105E09A1C04EB32
:102800008202002151600133072BF7D9002384F89D
:102810006430204601F0D6FB63681B6813B10021C9
:102820002046984710BD00BF08B5052303704368D4
:102830001B680BB10321984708BD00BF08B50423EE
:10284000037043681B680BB10421984708BD00BFA3
:1028500038B50446002580F8645000F1740201F098
:10286000F3FB256763689B6813B12046984718B946
:102870002046FFF727FFD0B1E26EB4F87A309A42D3
:1028800000D9E366202383F3118894F97430002B78
:1028900011DBE36E23B3A26E00212046FFF778FF21
:1028A000042384F86430002383F3118838BD204664
:1028B000FFF780FEFAE7E36E43B1A26E00212046E7
:1028C000FFF77AFF012384F86430ECE700231A460F
:1028D00019462046FFF75CFF032384F86430E2E7E3
:1028E00000231A4619462046FFF766FF052384F8A1
:1028F0006430D8E710B5044690F86430062B20D831
:10290000DFE803F036041036362F3600C36EB0F819
:102910007A20934206D2C268118AB3FBF1F201FB1E
:1029200012337BB1202383F3118800231A46194602
:102930002046FFF72DFF002383F31188032384F83B
:10294000643010BD202383F3118800231A461946F2
:10295000FFF732FF002383F31188022384F86430E9
:10296000EFE7036F03B19847002384F86430E8E78A
:10297000FFF720FEE5E700BF10B5044690F864308D
:10298000062B13D8DFE803F01F1F1F13041F1F00BF
:10299000202383F3118800231A461946FFF70CFF02
:1029A000002383F31188052384F8643010BDC368C5
:1029B0009B695B68002BF9D1036F03B19847002333
:1029C00084F86430F2E7FFF7F5FDEFE708B501F0B2
:1029D000ADFC08BD0901C9B2074A131883F80013FA
:1029E00000F01F01400901238B4000F1600142F813
:1029F000213042F82030704700E100E0154A1368AA
:102A000043F480731360144B1B6A03F44073B3F5F3
:102A1000807F05D0104B4FF480321A6200221A6278
:102A20000D4A136A43F0190313620B4B1B6A13F030
:102A3000020FFAD0084B1B6A13F4004F08D1064B63
:102A40001A6A42F480721A621A6A42F400421A62E6
:102A5000704700BF007000400010024010B50F4CDE
:102A6000A36A4FF0FF32A2620023A36221692261B0
:102A70002361E168E260E360E36943F08053E3616E
:102A8000FFF7BCFF00F062F9A36943F00103A36103
:102A9000034A136843F02003136010BD0010024086
:102AA00000000140244A136843F001031360224BE5
:102AB0001B6813F0020FFAD01F4B5A6822F0030272
:102AC0005A605A685A601C4B5B6813F00C0FFAD1BD
:102AD000194B1A6802F0F9021A6000225A605A6A09
:102AE00042F001025A62144B5B6A13F0020FFAD0F3
:102AF000114B124A5A6042F21012DA6230221A6303
:102B00001A6842F080721A600B4B1B6813F0007F4A
:102B1000FAD00B4B11221A60074A536843F00203A4
:102B20005360054B5B6803F00C03082BF9D1024B93
:102B30001A6B1A63704700BF001002400004680758
:102B40000020024008B5074B196811F00F0106D0AC
:102B50005960054B1B6813B1034A50689847FEF74C
:102B6000B1FE08BD00000240E016002008B5084B89
:102B70001968C1F3031141B10B01054A5360054BBC
:102B80009B6813B1034AD0689847FEF79BFE08BDC7
:102B900000000240E016002008B5084B1968C1F398
:102BA000032141B10B02054A5360054B1B6913B168
:102BB000034A50699847FEF785FE08BD00000240B1
:102BC000E016002008B5084B1968C1F3033141B184
:102BD0000B03054A5360054B9B6913B1034AD06947
:102BE0009847FEF76FFE08BD00000240E016002087
:102BF00008B5084B1968C1F3034141B10B04054AFC
:102C00005360054B1B6A13B1034A506A9847FEF79D
:102C100059FE08BD00000240E016002008B5084B30
:102C20001968C1F3035141B10B05054A5360054BC7
:102C30009B6A13B1034AD06A9847FEF743FE08BD6A
:102C400000000240E016002008B5084B1968C1F3E7
:102C5000036141B10B06054A5360054B1B6B13B171
:102C6000034A506B9847FEF72DFE08BD0000024056
:102C7000E016002008B5074B196811F00F0106D0C7
:102C80005960054B9B6B13B1034AD06B9847FEF715
:102C900019FE08BD00040240E016002008B5084BEC
:102CA0001968C1F3031141B10B01054A5360054B8B
:102CB0001B6C13B1034A506C9847FEF703FE08BD26
:102CC00000040240E016002008B5084B1968C1F363
:102CD000032141B10B02054A5360054B9B6C13B1B4
:102CE000034AD06C9847FEF7EDFD08BD0004024092
:102CF000E016002008B5084B1968C1F3033141B153
:102D00000B03054A5360054B1B6D13B1034A506D0D
:102D10009847FEF7D7FD08BD00040240E0160020EA
:102D200008B5084B1968C1F3034141B10B04054ACA
:102D30005360054B9B6D13B1034AD06D9847FEF766
:102D4000C1FD08BD00040240E016002000230C4A2B
:102D500013600B2B0CDC03EB83029100094A0A443D
:102D6000516800220A60084941F833200133F0E736
:102D70004FF0FF33054A536002F58062536070479D
:102D8000401700208C1F0208E016002000000240BF
:102D900070B5467C0124B4401D4D2D682C4235D1C0
:102DA0001C4C44F83620467C04EBC604636015F0E6
:102DB0007F0F04D1184C636943F00103636115F47C
:102DC000786F04D1144C636943F0020363610446D5
:102DD0004068036823F00F030360267C20680F23FC
:102DE000B3404360636800201860A3681D4203D1AC
:102DF00012B1A07CFFF7EEFD627C012303FA02F220
:102E000003490B6813430B60002070BD0120FCE7F1
:102E100040170020E01600200010024010B54FF0CF
:102E200080431B6913F0020F02D1FEF74BFD10BD6A
:102E300000244FF080431C61202383F31188FEF7A8
:102E40001FFA84F31188F0E708B50F4AD36943F0FD
:102E50000103D3610D4A936843F0010393604FF07F
:102E6000804341F2BF229A624FF0FF32DA620022C1
:102E70009A615A63DA605A6001225A611A6002212B
:102E80001C20FFF7A7FD08BD00100240002004E051
:102E90008269936843F00103936083691B6813F0B0
:102EA000010FFAD0704700BF8269936843F0004376
:102EB000936083699B68002BFBDB704783699A688A
:102EC00012F0040F08D09A6842F010029A608369E9
:102ED0009B6813F0100FFAD1704700BF08B58369E3
:102EE00000229A6083694FF080529A604FF4F0702C
:102EF000FEF70CFA08BD00BF2DE9F0410027194B81
:102F00001F60194C2046FFF719F8184EE6614FF084
:102F1000A043A361164D256242F28A58C4F824806A
:102F2000144C2046FFF70AF8E661134BA3618C3579
:102F30002562C4F8248002211220FFF74BFD0F4BBD
:102F40005A6942F080525A619A6A42F080529A62FB
:102F50009F624FF48032B2605A6922F080525A6107
:102F6000BDE8F081941700204417002000030050B2
:102F70008C1F02086C170020000100500010024056
:102F800043681BB10378012B03D07047204B43608B
:102F9000F8E710B504461F4B984216D01E4B9C42D2
:102FA00024D0A3694033226A526893606268A3699F
:102FB0001268C3F8B0202046FFF790FF2046FFF7C5
:102FC00073FF2046FFF764FF10BD0346134A052137
:102FD000006AFFF7DDFE124A136843F00103136035
:102FE000104A536943F080535361D7E723460B4A95
:102FF0000521206AFFF7CCFE094A136843F002035B
:103000001360084A536943F080535361C9E700BF16
:103010007C200208441700206C170020E5300008CF
:10302000941700200010024070B40369416ADA6806
:1030300042F001041D7845B141F0200542F003043F
:10304000C268012A3CD941F024018568026A5268AD
:10305000D5605E88C268056A6D6802FB06F26A6028
:10306000026A52681160026A51680A6842F00102FD
:103070000A608269116811608269902151608269D9
:10308000196911628269596951618269996991610D
:10309000DA695988013985690A432A638269196A9C
:1030A00051638269596A916382699B6AD3638369B8
:1030B000DC608269936843F00403936070BC7047DE
:1030C0002946C2E708B5036A59680B6823F00F0365
:1030D0000B60026A117C12680F238B405360FFF76C
:1030E000EDFE08BD38B5044611F0080F14D1036990
:1030F0006BB311F0020F56D01A787AB35D6835B30E
:10310000C268012A27D952085B8802FB03F3816851
:1031100001EB4301A8471AE0FFF7D4FF23699A683F
:1031200042B1052222709B680021204698472378EF
:10313000052B0DD000252561202383F311884FF046
:10314000FF3104F11400FEF745FB85F3118838BD0B
:1031500002232370EEE78168A847F8E7FFF7B2FF84
:1031600023695A68D2B1042222705B68E268A168C0
:10317000204698472378042B0BD0202383F3118813
:10318000002104F11400FEF725FB002383F31188CE
:10319000DDE70223237000232361EEE7022323707F
:1031A00000232361E9E711F0040FD0D05B68002B06
:1031B000CDD0C268520881689847C8E7C269936851
:1031C00043F4800393607047C269936843F080734F
:1031D0009360704708B50248FEF70CFF08BD00BFBA
:1031E00098170020F0B401F01F03012202FA03F344
:1031F0000F2914D88A0801F00304A4000F26A64062
:10320000456855F83150C5F30315A5403F4F0232CC
:1032100057F8224024EA06042C4347F822401F298D
:103220003AD813F0FC5F20D1426852F8312012F0F6
:10323000010F1CD0364CA2681A43A260426852F8B3
:10324000312012F0020F18D0314CE2681A43E260CC
:10325000426802EBC1014A68AAB12D4A11681943BC
:103260001160516821EA03035360F0BC7047284C99
:10327000A26822EA0302A260E0E7254CE26822EAA3
:103280000302E260E4E7224A516819435160116881
:1032900021EA03031360E8E733F00302E5D1426853
:1032A00052F8312012F0010F1BD0194CA26A1A43B8
:1032B000A262426852F8312012F0020F17D0144C6B
:1032C000E26A1A43E262426802EBC1014A68A2B1B3
:1032D0000F4A116A19431162516A21EA03035362CA
:1032E000C3E70B4CA26A22EA0302A262E1E7084CA0
:1032F000E26A22EA0302E262E5E7054A516A1943FB
:103300005162116A21EA03031362AEE70000014033
:103310000004014001F01F0301229A401F290FD829
:103320000F4B1868D143084018605868084058602F
:10333000986808409860D8680140D9605A61704721
:10334000074B186AD14308401862586A084058620F
:10335000986A08409862D86A0140D9625A637047F7
:103360000004014038B505460378012B01D0002444
:1033700007E000F0DDF9FAE721462846FFF7CAFF2B
:103380000134212C0AD86B6853F8343013F0040F41
:10339000F2D021462846FFF725FFF1E738BD00BFF0
:1033A00008B5084A5369116801F001010B405361E7
:1033B00023B1054843685B6800219847FEF782FA0D
:1033C00008BD00BF000401409817002008B5084A56
:1033D0005369116801F002010B40536123B10548A4
:1033E0004368DB6801219847FEF76CFA08BD00BF0F
:1033F000000401409817002008B5084A5369116875
:1034000001F004010B40536123B1054843685B6937
:1034100002219847FEF756FA08BD00BF000401409C
:103420009817002008B5084A5369116801F008018F
:103430000B40536123B105484368DB69032198477A
:10344000FEF740FA08BD00BF0004014098170020B5
:1034500008B5084A5369116801F010010B40536127
:1034600023B1054843685B6A04219847FEF72AFAAE
:1034700008BD00BF000401409817002010B5194B8B
:103480005C691A6802F4787214405C6114F0200FD1
:1034900004D015484368DB6A0521984714F0400FB3
:1034A00004D0114843685B6B0621984714F0800FE5
:1034B00004D00D484368DB6B0721984714F4807FE4
:1034C00004D0094843685B6C0821984714F4007FD6
:1034D00004D005484368DB6C09219847FEF7F2F9F0
:1034E00010BD00BF000401409817002010B51D4B0F
:1034F0005C691A6802F47C4214405C6114F4806FC9
:1035000004D0194843685B6D0A21984714F4006F92
:1035100004D015484368DB6D0B21984714F4805F95
:1035200004D0114843685B6E0C21984714F4005F87
:1035300004D00D484368DB6E0D21984714F4804F8A
:1035400004D0094843685B6F0E21984714F4004F7C
:1035500004D005484368DB6F0F219847FEF7B2F9A6
:1035600010BD00BF000401409817002008B5084AAC
:103570005369116801F480310B4053612BB1054848
:103580004368D3F8843010219847FEF79BF908BDB3
:10359000000401409817002008B5084A53691168D3
:1035A00001F400310B4053612BB105484368D3F857
:1035B0008C3011219847FEF785F908BD00040140C1
:1035C0009817002008B5084A5369116801F4802152
:1035D0000B4053612BB105484368D3F89430122156
:1035E0009847FEF76FF908BD0004014098170020C6
:1035F00008B5084A5369116801F400210B40536172
:103600002BB105484368D3F89C3013219847FEF747
:1036100059F908BD000401409817002008B5084A70
:103620005369116801F480110B4053612BB10548B7
:103630004368D3F8A43014219847FEF743F908BD36
:10364000000401409817002010B5144B5C691A68FB
:1036500022F05F4222F40002520D520514405C61D8
:1036600014F4001F05D00E484368D3F8AC30152180
:10367000984714F4800F05D009484368D3F8B43054
:103680001621984714F0005F05D005484368D3F829
:10369000EC301D219847FEF715F910BD00040140DC
:1036A0009817002010B5154B5C691A6802F040426B
:1036B00014405C6114F0804F05D011484368D3F882
:1036C000F4301E219847002C10DB0C4A536B116A12
:1036D0000B4003F0010353632BB109484368D3F84F
:1036E000043120219847FEF7EDF810BD04484368E7
:1036F000D3F8FC301F219847E7E700BF00040140E2
:103700009817002008B5084A536B136803F00203AA
:1037100053632BB105484368D3F80C3121219847F6
:10372000FEF7D0F808BD00BF000401409817002044
:1037300008B506210846FFF74DF906210720FFF7D7
:1037400049F906210820FFF745F906210920FFF76E
:1037500041F906210A20FFF73DF906211720FFF75E
:1037600039F906212820FFF735F903210120FFF759
:1037700031F903212920FFF72DF906214C20FFF70D
:1037800029F906210220FFF725F906210320FFF77A
:1037900021F906214020FFF71DF906214120FFF7FE
:1037A00019F906214220FFF715F908BD4B6843605F
:1037B0008B688360CB68C3600B6943614B690362AC
:1037C0008B6943620B680360704700BF10B5044605
:1037D000114A536943F4FC03536101464FF0904092
:1037E000FFF7E4FF04F11C010C48FFF7DFFF04F1D1
:1037F00038010B48FFF7DAFF04F154010948FFF7DD
:10380000D5FF04F170010848FFF7D0FF04F18C01E7
:103810000648FFF7CBFF10BD00100240000400482F
:1038200000080048000C0048001000480014004840
:103830002DE9F04702F00306C2F3800EC2F3C10C7B
:10384000C2F34117C2F3C312002414E0072C45D879
:10385000056A25EA080848EA0905056205682B405B
:1038600033430360490847D04FEA4E0E4FEA8C0CB1
:10387000BF00B600013411F0010FF3D004F00708C7
:103880004FEA880802FA08F9012505FA04FA04FA51
:1038900005F3032505FA03F30F2505FA08F8456833
:1038A00025EA0A0545EA0E0545608568DB431D40AB
:1038B00045EA0C058560C5681D403D43C560022E84
:1038C000C4D005682B4033430360072C0DD8036A2E
:1038D00023EA080848EA09030362C3E7456A25EAC0
:1038E000080848EA09054562B8E7436A23EA080878
:1038F00048EA09034362B5E7BDE8F08708B5054823
:10390000054BC360FEF78EFB0448054BC360FEF712
:1039100089FB08BDA0170020002C0140B017002033
:103920000008004010B504460378012B19D0A368A5
:1039300062681268B3FBF2F39BB2013B9BB2E16891
:1039400000220A606068E16880684860E1688B6214
:10395000E3681A616368DB68E26823F0FF03D36001
:1039600010BD154B984214D0144B9C42DFD1144B20
:10397000DA6942F00402DA611A6942F004021A615B
:1039800000221A6102211E20FFF724F80D4BA360CC
:10399000CDE70B4B9A6942F400629A61DA6842F40F
:1039A0000062DA600022DA6002211920FFF712F8C3
:1039B000044BA360D8E700BFA0170020B017002079
:1039C00000100240006CDC02C3680139D962C36890
:1039D00001225A61C26800235362C26813614368BE
:1039E0005B6823B1C268D36843F00103D360C36846
:1039F00005221A60704700BFC26800231360C268C6
:103A00001361C268D36823F0FF03D360704700BF1F
:103A1000C3680139D962C36801225A61C3680D22A3
:103A20001A60C3681A6912F0010FFAD000221A61F5
:103A3000704700BF10B50446C36800221A610378BE
:103A4000042B04D063685B682046984710BD0223AE
:103A50000370FFF7D1FFF5E708B50348FFF7EAFF6A
:103A6000FDF730FF08BD00BFA017002008B50348D0
:103A7000FFF7E0FFFDF726FF08BD00BFB0170020ED
:103A800010B5044C2046FEF7FFFA04232374024BC2
:103A9000A36110BDC01700200004004010B504460B
:103AA0000378012B62D0826900231360826953631B
:103AB000826993638269D36382691364037C042BF4
:103AC00004D98269002393658269D365A3690022C2
:103AD0005A62636962681268B3FBF2F3013BA26940
:103AE0009362A368A269013BD3626268A369D26B47
:103AF0005A606268D36803F00F03012B55D0022B84
:103B000055D143F00103516901F00F01012903D0A0
:103B1000022903D143F0200343F01003D16901F0DF
:103B20000F01012903D0022903D143F4007343F4A8
:103B30008073526A02F00F02012A03D0022A03D1D5
:103B400043F4005343F48053A2691362A369012232
:103B50005A61A36900221A6163681B6CA26923F091
:103B6000FF03D360A36985221A6010BD114B9842F0
:103B700009D0A26946F668039361A269D361A3697B
:103B80000D4A5A65A5E70D4BDA6942F00202DA6187
:103B90001A6942F002021A6100221A6103211D20F3
:103BA000FEF718FF064B6361E3E70023A9E7002354
:103BB000A9E700BFC017002068680101001002409B
:103BC000006CDC02032905D883690C3103EB810109
:103BD0004A6070478369123143F82120704700BF63
:103BE00003290FD8836901F10C0203EB8203002241
:103BF0005A608069C368022202FA01F123EA0103D4
:103C0000C360704783691231002243F82120704756
:103C100038B5054683691C69DA68D2B21440E243BC
:103C20001A6114F0020F03D043681B6903B198476F
:103C300014F0040F04D06B689B690BB128469847B9
:103C400014F0080F04D06B681B6A0BB12846984724
:103C500014F0100F04D06B689B6A0BB1284698478C
:103C600014F0010F04D06B689B680BB1284698478D
:103C700038BD00BF08B50348FFF7CAFFFDF722FEB5
:103C800008BD00BFC01700200023036043608360AD
:103C9000704700BF024A136843F080031360704707
:103CA00000380140F8B50646846E2768E56925624C
:103CB000202383F3118815F0200F07D0A18CC9B2FF
:103CC00006F10800FEF796F8E569F4E717F0800FB3
:103CD00010D117F0400F05D015F0400F02D027F09B
:103CE00040072760002383F31188F8BD27F0800385
:103CF0002360EEE715F0800FEBD006F12800FEF709
:103D0000E3F80028F2DB80B22085E569F2E700BF26
:103D100008B50348FFF7C6FFFDF7D4FD08BD00BF97
:103D2000DC17002010B5074C074A00212046FEF79B
:103D30000BFA064BA366064BE36603212520FEF72C
:103D400049FE10BDDC170020953C000800380140FA
:103D5000006CDC02836E1A6822F001021A60C26EE7
:103D6000B2FBF1F1D9601A6842F001021A607047A3
:103D700010B5846E8B6843F040036360CB6843F0FA
:103D80000103A3604B6843F4967343F0010323607F
:103D90000968FFF7DFFF4FF0FF33236210BD00BF5C
:103DA00008B50B4631B10279012A05D01946FFF753
:103DB000DFFF08BD054BF6E7054A9042F6D10549FD
:103DC0008A6942F480428A61F0E700BF80200208DD
:103DD000DC170020001002400379022B00D070474E
:103DE00010B50446806EFFF74FFF054B9C4200D094
:103DF00010BD044A936923F480439361F8E700BF40
:103E0000DC170020001002404023C0F880307047CB
:103E1000D0F88030013121F001011944C0F8801040
:103E20001846704730B4124B1B6D03EB001000F1C5
:103E3000804000F5C040846804F1005404F540540B
:103E40006400C568C5F309000023B3EB500F05D229
:103E500054F8232021F813200133F6E715F0010F61
:103E600003D014F8232001F8132030BC704700BFA2
:103E7000005C004010B40E4B1B6D03EB001000F112
:103E8000804000F5C040046804F1005404F540543B
:103E9000640042600023501CB3EB500F05D231F890
:103EA000130044F823000133F5E75DF8044B704735
:103EB000005C004008B50248FEF726FC08BD00BFC4
:103EC0004C18002038B50378012B00D038BD0446CB
:103ED0000C4B984203D02046FEF782FCF6E70A4AD4
:103EE000D36943F40003D361084D01232B640D21F2
:103EF0004A20FEF76FFD03214B20FEF76BFD0023E8
:103F00002B64E8E74C18002000100240005C0040E1
:103F100090F87E3043F08003014AD364704700BFBD
:103F2000005C00402DE9F04180460E468B1C00EB02
:103F300083035F683B6813F0030338D0022B39D941
:103F4000032B02D14FF4C06501E04FF400751C4B08
:103F50001C6D04EB061404F1804404F5C0447B6935
:103F600043B100236360398A4046FFF751FF206068
:103F700045F02005BB6983B17B8A3E2B1CD9013BF0
:103F80005B1143F020039BB29B02E360798A4046B9
:103F9000FFF73EFFA06045F40055094B53F826207B
:103FA00043F82620354343F82650BDE8F0814FF40E
:103FB0000075CCE70025CAE701335B08E4E700BFE2
:103FC000005C004010B504460C4B00221A655A6490
:103FD0008022DA644368DB686BB14FF41E42074B02
:103FE0001A642046FFF710FF054BE36000212046CE
:103FF000FFF798FF10BD4FF41C42F0E7005C004053
:1040000090200208074B53F8213013F4405304D09A
:10401000B3F5805F03D00220704700207047012075
:10402000704700BF005C0040064B53F8213013F08E
:10403000300303D0102B03D00220704700207047BC
:1040400001207047005C00400B4B1B6D03EB01111E
:1040500001F1804101F5C041896801F1005101F58C
:1040600040514900002304E051F8230022F81300D6
:104070000133032BF8D97047005C0040074A52F81F
:10408000213023F4904323F0700383F4405343F42E
:10409000004343F0800342F821307047005C004049
:1040A00070B50D468B1C00EB830042685469236891
:1040B00061685B1A168A9E4200D31E46A368324688
:1040C00019442846FFF7D6FE63681E446660084A16
:1040D00052F8253023F4F04323F0400383F03003FB
:1040E00043F4004343F0800342F8253070BD00BF25
:1040F000005C00402DE9F041054601F00F043C4B07
:1041000053F82420A31C00EB83035E6811F0100F0A
:1041100023D1374A52F8243023F4784323F0F003B4
:1041200043F4004342F8243073695A681B689A428A
:104130000FD3012303FA04F2038923EA0203038164
:10414000A31C00EB83035B689B68DBB121469847A7
:1041500018E02146FFF7A4FF14E0254951F8243068
:1041600023F4784323F0F00343F0800341F8243034
:1041700012F4006F08D0A31C00EB83035B685B683C
:1041800021469847BDE8F081B7695FFA84F8B968BD
:104190007B6819444046FFF745FE7B6803447B601B
:1041A0003A68934202D2738A834211D9012303FAF7
:1041B00004F26B8923EA02036B81023405EB840469
:1041C0006368DB68002BDDD0414628469847D9E775
:1041D000074A52F8243023F4904323F0700383F409
:1041E000405343F4004343F0800342F82430C9E7CE
:1041F000005C004010B51F4B5C6CE2435A6414F441
:10420000806F1DD114F4006F1ED114F4805F04D0B0
:10421000184B9B6C13F4004F1FD014F4007F05D093
:10422000154B5B68DB680BB11348984714F4004FDB
:104230001CD021461048FFF75DFF0E4B5C6CF5E784
:104240000D48FEF7CDFADDE70A4A136C43F0080388
:1042500013640948FEF7E8FAD7E7064A136C23F01F
:10426000080313640448FEF7E9FAD6E7FDF72AFBD2
:1042700010BD00BF005C00404C180020074A52F8F7
:10428000213023F4904323F0700383F4805343F4EC
:10429000004343F0800342F821307047005C004047
:1042A000074A52F8213023F4F04323F0400383F00F
:1042B000100343F4004343F0800342F82130704779
:1042C000005C00400B4B53F8213003F44053B3F52E
:1042D000405F0ED0074A52F8213023F4904323F078
:1042E000700383F4005343F4004343F0800342F827
:1042F00021307047005C00400B4B53F8213003F035
:104300003003302B0ED0084A52F8213023F4F0430A
:1043100023F0400383F0200343F4004343F0800381
:1043200042F82130704700BF005C0040024B012280
:104330001A70024A9A607047DC1800200030004072
:1043400080B500AF0D4B1A680D4B9A4213D10B4B41
:1043500000221A6072B60B4B1A6801221A60BFF372
:104360004F8FBFF36F8F084B1B6883F30888074B91
:104370001B689847FEE7FEF795FB80BDF09F002085
:10438000EFBEADDE0000014000D8FF1F04D8FF1FC4
:10439000014B11221A607047002002402DE9F84FAE
:1043A000834616461F46DDF82C9000F10B0A544652
:1043B00004E0302316E056EA07031DD04FF0000852
:1043C0000A9A434630463946FCF7B2FCD5B20A9AFF
:1043D000434630463946FCF7ABFC06460F46092DEE
:1043E000E7D937231D4404F8015DB9F1000FE2D08D
:1043F000B9F10109E2D1DEE7AAEB040A584614F844
:10440000013B00F8013B8346BAF1010AF6D1BDE851
:10441000F88F00002DE9F04F83B0064692469B4688
:10442000DDF83490B9F1000F13D1042747F00107EC
:10443000B9F10F0F01D94FF00F0906F10F030193E6
:104440001D464FF492780023CDF83490B1461E46B5
:1044500006E00227EAE765464FEA580882468B469F
:104460000A22002350465946FCF7B2FCD4B20A2275
:10447000002350465946FCF7ABFC05F1FF3C3034B5
:1044800005F8014CBBF1000F08BFBAF10A0F08D3C1
:1044900018F0010FDFD0202305F8023C0136023D61
:1044A000DAE732464E46DDF83490244B9C5C019BA3
:1044B000A3EB0C0B0C9B23B19B4504D99B464946AF
:1044C0001BE0494619E0494617E017F0010F04D0F8
:1044D00007F0FE079C462E2215E017F0020F06D0CB
:1044E0009CF801200BF1FF3B0CF1020C0BE09C4609
:1044F00009E0BBF1010B10D01E46634613F8012BF7
:10450000202AE2D09C46334603F8012B17F0010F16
:10451000EFD1481E09B10146EBE72E2A00D01E4616
:1045200017F0040F04D0202C02D0202306F8013B02
:10453000304600F8014B03B0BDE8F08F542102086B
:1045400030B583B00D46092900D909251A4B53F817
:104550002530BCEEC07AF8EE477A70EE677A06EE48
:10456000903AB8EE660A20EE270AF6EE007A30EEB0
:10457000270AFCEEC07A17EE904AA34205D8E41A47
:1045800017EE103A013307EE103A002301930A2286
:10459000009217EE102AFFF701FF0DB903B030BDEE
:1045A0002E2300F8013B01950A23009322460023A5
:1045B000FFF7F4FEF2E700BF6821020838B50C46A9
:1045C000DFED2F7AB4EEE70AF1EE10FA08DCF7EE31
:1045D000007AB4EEE70AF1EE10FA26D4002513E0D3
:1045E000284B1A7862B1DFED267AB4EEE70AF1EED5
:1045F00010FA05DDDFED227A80EE270A0133F0E7BD
:1046000013F8015C05B1013CFCEEC07A17EE903A5C
:10461000632B26D9023C002C27DB2146FFF790FFB5
:1046200034BB0DB100F8015B38BD174B1A7862B18D
:10463000F7EE007AB4EEE70AF1EE10FA05D5DFEDF9
:10464000107A20EE270A0133F0E7DFED107AB4EE9E
:10465000E70AF1EE10FA02DD13F8015CD2E700255B
:10466000D0E7092BD7D9013CD5E70024D5E701389D
:1046700010F8013C302BFAD02E2BD2D10138D0E7E4
:1046800000007A4455210208902102086F12833AF3
:10469000B5EE400AF1EE10FA0ED030B40024F2EE7E
:1046A000047AB4EEE70AF1EE10FA0ED5F2EE047ACF
:1046B00020EE270A013CF2E7302300F8013B704767
:1046C000F2EE047A80EE270A0134F2EE047AB4EEB8
:1046D000E70AF1EE10FAF3DCFDEEC07A17EE903A3D
:1046E0003033024602F8023BF2EE047A20EE270A4B
:1046F0002E234370C1B14D1EC1B1FDEEC07A17EE3D
:10470000901A1A4880FB0130CB17C3EBA00303EBD0
:10471000830358000B1A303302F8013BF2EE047A9F
:1047200020EE270A2946E6E70621E4E76523137011
:10473000002C15DB911C2B2353700C4A82FB043296
:10474000E317C3EBA20303F13002084600F8022B83
:1047500003EB83035A00A21A30324A7030BC704710
:10476000911C2D2353706442E7E700BF67666666BD
:104770000389012B06D943685A1C426019700389CA
:10478000013B0381002070472DE9F04F8DB0814639
:104790000C4603924FF000082023029316E20026F5
:1047A00002E046F00206013423782D2BF9D02B2BA2
:1047B00008D0302B09D0202B0AD0622B0BD146F029
:1047C0008006F0E746F00406EDE746F01006EAE75B
:1047D00046F02006E7E7002503E005EB85056A00C3
:1047E000D51814F8017BA7F13003DBB2092BF4D9FB
:1047F0002A2F04D1039B1A1D03921B78EDE72E2F5D
:104800000FD046F040064FF0000A6C2F20D04C2FFE
:104810001ED0A7F14103DBB2192B1FD846F00106C9
:104820001CE04FF0000A05E00AEB8A0A4FEA4A0250
:1048300002EB030A14F8017BA7F13003DBB2092B6A
:10484000F2D92A2FE1D1039B1A1D03921B78EBE7C3
:1048500046F0010623780BB101341F46A7F144034B
:10486000342B00F26E81DFE813F063006C01D2009C
:104870006C016C0163006C016C016C016C016C01DA
:1048800035006C01AC006C016C016C013F016C01E6
:104890006C0141016C016C016C016C016C016C01DB
:1048A0006C016C016C016C0137006300D200D20016
:1048B0006C016C0163006C016C016C016C016C019A
:1048C00035006C01AC006C0146006C013F016C01CD
:1048D0006C01410108220AE126F01006039B1A1D13
:1048E00003921B78002B00F032818DF8103004AF5A
:1048F0000DF1110B13E126F01002039B191D03911A
:104900001F6827B116F0400F0FD1BB4603E0B84F28
:10491000F8E70BF1010B9BF80030002B00F01A8137
:10492000BAF1010AF5D51646F9E047F6FF7AECE749
:1049300016F0010F19D0039B073323F0070303F18F
:1049400008020392D3E90023CDE90A23DDE90A2313
:10495000002A73F1000310DB16F0040F26D02B237E
:104960008DF810300DF1110015E0039B1A1D039214
:104970001A68D317CDE90A23E8E746F008062D2385
:104980008DF81030DDE90A23524263EB4303CDE991
:104990000A230DF11100002301930A230093DDE99E
:1049A0000A23FFF7FBFC834604AFB8E016F0200FA4
:1049B00005D020238DF810300DF11100EBE704A88D
:1049C000E9E716F0010F1AD0039B073323F0070322
:1049D00003F108020392D3E90023CDE90A2316F07C
:1049E000400F01D04FF00F0ACDF804A00095DDE98B
:1049F0000A2304A8FFF70EFD834604AF8FE0039B54
:104A00001A1D03921A680023CDE90A23E7E716F07E
:104A1000800F14D0039B1A1D03921B680A93DDEDCF
:104A20000A7AF5EEC07AF1EE10FA15D416F0040FFA
:104A30002ED02B238DF810300DF1110019E0039BBF
:104A4000073323F0070303F108020392D3E90001BF
:104A5000FCF710F80A90E2E746F008062D238DF8DF
:104A60001030DDED0A7AF1EE677ACDED0A7A0DF1BC
:104A700011009DED0A7ADFED5F7AB4EE677AF1EE10
:104A800010FA10D1834619230BF8013B04AF46E01E
:104A900016F0200F05D020238DF810300DF11100F5
:104AA000E7E704A8E5E7462F0CD0652F12D09DED6F
:104AB0000A0A16F0400F15D15146FFF741FD834613
:104AC00004AF2CE09DED0A0A5146FFF777FD8346BF
:104AD00004AF24E09DED0A0A5146FFF7D9FD834655
:104AE00004AF1CE00921E8E70A2200E0102216F0DA
:104AF000010F1ED0039B073323F0070303F10801C6
:104B00000391D3E90001CDE90A010023019300924A
:104B1000DDE90A2304A8FFF741FC834604AFABEBB1
:104B20000703ED1A18D416F0100F29D03023029382
:104B300013E0039B191D039118680021CDE90A01B8
:104B4000E3E78DF8107004AF0DF1110BE7E704AF48
:104B5000BB46E4E71646E2E7002516F0020F27D130
:104B600016F02C0F18D016F0100F15D0D9F8003011
:104B70009B6817F8011B4846984708F101080BE0AD
:104B800020230293E9E7D9F800309B680299484650
:104B9000984708F10108013D002DF4D108E0D9F84B
:104BA00000309B6817F8011B4846984708F1010838
:104BB000BB45F4D808E0D9F800309B680299484614
:104BC000984708F10108013D002DF4D114F8011BAC
:104BD00051B125293FF4E3ADD9F800309B68484630
:104BE000984708F10108F1E740460DB0BDE8F08FA5
:104BF000602102080000807F024B03604260018157
:104C0000704700BF9C2102080CB410B584B00C1E84
:104C100011DD024621466846FFF7EEFF07AA039220
:104C200006996846FFF7B0FD019B00221A70844286
:104C300002DC601E00E0002004B0BDE8104002B0BD
:104C40007047000000207047002070470239C36998
:104C5000023B8B4204D9036B408901FB0030704753
:104C6000002070474B8B0278032A01D0184670470A
:104C70008A8A43EA0243F9E74A830378032B00D088
:104C80007047120C8A82FBE74B8B53BB70B40A78D7
:104C900022F04002013A02EB420302EB83020125BB
:104CA000002304E04FF6FF76B4421ED101330C2BF3
:104CB0000BD8124CE45C0C5B002DF3D0202A12D8E8
:104CC00020F8124025460132F0E70B7813F0400F30
:104CD0000DD07DB1202A0FD8002320F812300120FA
:104CE00006E000207047002002E0002000E00120E4
:104CF00070BC70470120FBE70020F9E72C22020876
:104D000070B44B730F23CB7200230B734B83551E70
:104D100005EB450405EB84051C4602E001330C2B32
:104D20000ED84FF6FF76B44202D030F81540013568
:104D3000094EF65C8C53002CF0D14FF6FF74EDE772
:104D40004FF6FF739C4202D030F815300BB942F099
:104D500040020A7070BC70472C2202080B2100220E
:104D6000D30143EA520310F8012B52FA83F3DAB26B
:104D70000139F5D11046704730B40546417801310C
:104D800049010020034607E0420802EBC032EC5C18
:104D900014FA82F290B201338B4203D2022BF3D188
:104DA0000133F8E730BC704703695B6B8B600369C4
:104DB000D3E90E23C1E90423036993F8213003F0FA
:104DC0000203CB710023CB61704700BF03685A1CFC
:104DD00002601878A0F16103192B00D820387F28D1
:104DE00002D98038014B185C704700BFAC21020823
:104DF0002DE9F04385B0804601911446994614F0A0
:104E0000FF0706D001A8FFF7E1FF002841D0013CD1
:104E1000F5E798F8003003BBFCB101203AE0B9F1A6
:104E2000000F3AD03A46039B581C039019783F294B
:104E30002BD042F480725B783F2BF4D02A2BF2D037
:104E400009F1FF330299FFF7D3FF40BB029B1E78A5
:104E500001A8FFF7BBFF24B3CEB1CDF80C80019BB6
:104E60000293039B1B783F2BD9D02A2BD7D003A8C2
:104E7000FFF7ACFF054602A8FFF7A8FF06468542EC
:104E8000E6D1002DEDD1012004E00132D3E700206E
:104E900000E0002005B0BDE8F0830020FAE7012023
:104EA000F8E70020F6E700BF10B4046834B32146E9
:104EB0000B4613F8012B1F2A02D919463A2AF7D1BB
:104EC0003A2A04D0002210465DF8044B704722783D
:104ED000A2F13001C9B209290DD802349C4202D096
:104EE0004FF0FF32EFE7303A002A02DD4FF0FF3299
:104EF000E9E70360E7E74FF0FF32E4E74FF0FF3206
:104F0000E1E700BF38B50D46A8B104460368ABB170
:104F10001A78AAB18188DA88914203D00920002347
:104F20002B6038BD58781AF073FB10F0010F0AD1CE
:104F300023680020F4E709200023F1E70920EFE7C8
:104F400009200023ECE709200023E9E738B5C378FE
:104F50000BB9002038BD044600F13C050123826BEB
:104F6000294640781AF0A0FBA0B90023E370A16B9A
:104F7000A36ACB1A226A93420ED2A378022B01D0E5
:104F80000020E7E701230A44294660781AF08CFBE9
:104F90000020DFE70120DDE70020DBE770B5836B51
:104FA0008B4202D10026304670BD04460D46FFF705
:104FB000CDFF06460028F6D101232A4604F13C0124
:104FC00060781AF02DFB10B101264FF0FF35A56374
:104FD000E9E700BF38B504460023C3704FF0FF3344
:104FE0008363FFF7DBFF002858D1B4F83A524AF642
:104FF00055239D420DD094F83C30EB2B13D0E92B78
:1050000011D0E82B0FD04AF655239D4244D00320FF
:1050100038BD0B22224904F13C001CF0C3FE0028DD
:10502000E9D10120F4E74AF655239D422AD0B4F88D
:10503000473094F849105A1E1342E4D1B3F5007F6B
:10504000E1D3E0D80029DED04B1E1942DBD1B4F801
:105050004A30002BD7D094F84C30013B012BD2D8EA
:10506000B4F84D30002BCED0B4F84F307F2B03D89E
:10507000E36DB3F5803FC6D3B4F85230002BC2D0F5
:105080000020C5E70822074904F18E001CF08AFEC3
:105090000028CCD10020BBE70220B9E70420B7E705
:1050A0003C2202084822020870B584B006460D462C
:1050B0000021FFF78FFF022814D029D845B3002321
:1050C0000BE006F13C011A0102F5E372895804AACB
:1050D00002EB830242F8101C0133032BF1D91DB1FE
:1050E0006C1E0CE00023F8E72C4608E03046FFF782
:1050F00071FF6DB901280BD90134032C08D804AB1A
:1051000003EB840353F8101C0029EFD10320F0E7D0
:1051100004B070BD2DE9F8430F46164600230B601E
:10512000FFF7C2FE051EC0F29D81B54B53F8254026
:10513000002C00F09A813C6006F0FE06237873B1E3
:1051400060781AF065FA10F0010F08D1002E00F017
:105150008E8110F0040F40F08C81002083E1002349
:105160002370E8B260701AF0A5F910F0010F40F05A
:1051700082811EB110F0040F40F07F810021204693
:10518000FFF792FF042800F07A81012800F279816C
:10519000A16B52D0B4F84730B3F5007F40F08B815B
:1051A000B4F8520000B9206E206294F84C20A2702E
:1051B000531EDBB2012B00F2808100FB02F294F857
:1051C00049306381002B00F07A815D1E2B4240F054
:1051D0007881B4F84DE0A4F808E01EF00F0F40F01D
:1051E0007281B4F84F5005B9E56DB4F84A80B8F152
:1051F000000F00F06A8108EB020C0CEB1E1C6545E9
:10520000C0F06581A5EB0C05B5FBF3F79D42C0F03E
:1052100060817C4B9F4240F2AE8000264FF6F573D2
:105220009F4200D8022640F6F5739F4240F2A580C7
:10523000002E40F0A3800D2015E10B233F2B05D855
:10524000E21892F83C200AB90133F7E73F2B40F20D
:105250001A81B4F8A430B3F5807F40F0168194F839
:10526000A830092B40F01381D4E9216716EB01081F
:1052700047F10009B9F1010F08BFB8F1000F80F044
:105280000881D4F89030236294F8AA30A370012BDF
:1052900040F0018194F8A92093409BB26381002BD8
:1052A00000F0FB80D4F898205748824200F2F78043
:1052B000901CE0616162D4F8940008442063D4F843
:1052C0008C502944A16202FB03F20026121846F119
:1052D0000003994508BF9045C0F0E380D4F89C30A6
:1052E000E36200252E4608E00136631993F83C304E
:1052F000812B14D02035C5F30805002DF5D1638925
:10530000B34240F2D080E16A2046FFF79FFC81194A
:105310002046FFF743FE0028E6D00120A3E004F179
:105320003C0614357559012D40F2BF80E369AB424C
:1053300040F2BD80226B6389A91E01FB03236363D6
:10534000A16A01EBD5112046FFF728FE002840F0A6
:10535000B08005F07F0356F82330B3F1FF3F04D04F
:105360000135AB42ECD00D207DE04FF0FF33A3615F
:105370006361042629E0032650E701260237E7612E
:10538000616208EB0103A36201EB0C052563032EA8
:1053900028D0BEF1000F00F0A2801A44E262022E73
:1053A0002BD007EB470207F0010303EB520303F294
:1053B000FF13B0EB532FC0F094804FF0FF33A36185
:1053C000636180232371032E26D026700F4A138831
:1053D00001339BB21380E3800D4BE3600D4B2361DF
:1053E000002040E0B4F86630002B74D1BEF1000F0D
:1053F00073D1A36EE362BB00D9E77B00D7E700BFA0
:1054000088190020F5FFFF0FFDFFFF7F8C1900209A
:1054100090190020E8180020B4F86C30012BD4D18A
:1054200001312046FFF7BAFD0028CED100232371B9
:10543000B4F83A224AF655239A42C6D1E26B2A4B77
:105440009A42C2D1D4F8202203F1FF5303F500534E
:1054500020339A42B9D1D4F82432A361D4F8283247
:105460006361B2E70B20BDE8F8830C20FBE7002066
:10547000F9E70A20F7E70320F5E70A20F3E7012020
:10548000F1E70D20EFE70D20EDE70D20EBE70D2014
:10549000E9E70D20E7E70D20E5E70D20E3E70D2024
:1054A000E1E70D20DFE70D20DDE70D20DBE70D2034
:1054B000D9E70120D7E70D20D5E70D20D3E70D2050
:1054C000D1E70D20CFE70D20CDE70D20CBE70D2054
:1054D000C9E70D20C7E70D20C5E70D20C3E70D2064
:1054E000C1E70D20BFE700BF525261412DE9F843EB
:1054F000054691468F1EC369023BBB4200D8002778
:10550000B8463C460026696B01EB14312846FFF78C
:1055100045FD40BBC4F3C80004F0070201239340DB
:10552000DBB209E0A0460026A7421FD023B9013014
:10553000B0F5007FE7D201232A1892F83C201A40E8
:105540005B00DBB20134E9690239A14203D80024CF
:105550004FF400702346002AE4D101364E45E3D1D2
:1055600008F1020003E04FF0FF3000E00020BDE84A
:10557000F88300BF2DE9F8430646174698468C1E6F
:10558000416B01EB1431C4F3C80504F00704012397
:1055900003FA04F4E4B201F101093046FFF7FEFC1E
:1055A000014610B101211EE00124731993F83C302B
:1055B000234214BF01220022424513D072196340D6
:1055C00082F83C300123F370013F0CD09C4014F072
:1055D000FF04EAD11D441C46B5F5007FE4D34946DB
:1055E0000025D8E702210846BDE8F8832DE9F843F5
:1055F000012979D905460C461646C3698B4277D9ED
:105600000378013B032B75D8DFE803F002405050CC
:1056100001EB5107816A01EB5721FFF7BFFC0346FD
:10562000002862D105F13C0907F10108C7F308071A
:1056300014F001041FD019F9073003F00F033201F1
:1056400002F47F621343DBB209F807300123EB70E9
:10565000A96A01EB58212846FFF7A0FC0346002861
:1056600043D1C8F3080844B1C6F3071609F8086027
:105670000122EA7039E0F3B2E6E719F9082022F0D6
:105680000F02C6F303261643F6B2EFE7816A01EB79
:105690001421FFF783FC034638BB05F13C0264008C
:1056A00004F4FF7416530122EA701EE0816A01EBD4
:1056B000D411FFF773FC0346B8B92A78042A0AD03C
:1056C00026F0704605F13C01A20002F4FE728A58F1
:1056D00002F07042164305F13C02A40004F4FE748B
:1056E00016510122EA7000E002231846BDE8F88353
:1056F0000223FAE70223F8E770B504460D46164682
:1057000007E03246FFF772FF034658B9E369013BF1
:10571000E361E36933B12068EA1A511C012BF0D927
:105720000232EFE7184670BDC379032B02D0002385
:105730001846704770B50646816884694CB14D1CA7
:105740002A463068FFF752FF034620B9013C29463C
:10575000F4E70023F371184670BD00BFF8B5056883
:10576000012940F29380EB698B4240F291800C4614
:105770002B78013B032B00F28D80DFE803F0022B36
:105780003A4B01EB5106A96A01EB56212846FFF777
:1057900005FC10B14FF0FF3079E0771CC6F3080626
:1057A0002E4496F83C60A96A01EB57212846FFF782
:1057B000F5FB002870D1C7F308022A4492F83C0098
:1057C00046EA002014F0010F01D000095FE0C0F3A9
:1057D0000B005CE0A96A01EB14212846FFF7DEFB11
:1057E00000285CD105F13C02600000F4FF70105A03
:1057F0004DE0A96A01EBD4112846FFF7CFFB002842
:1058000050D105F13C02A00000F4FE70105820F0C9
:1058100070403CE0D0E9046756EA070301D0836892
:1058200013B9C379002B40D18368E21A16F1FF3314
:1058300047F1FF315B0A43EAC1536989B3FBF1F3D6
:10584000C179022908D003290BD0022932D0C369BB
:1058500063B16FF000401AE09A42F4D827D0601C80
:1058600015E083699342F0D9601C10E0A96A01EB4E
:10587000D4112846FFF792FBF0B905F13C02A300D2
:1058800003F4FE73D05820F0004000E00120F8BD82
:105890000120FCE70120FAE74FF0FF30F7E74FF077
:1058A000FF30F4E74FF0FF30F1E70120EFE76FF052
:1058B0000040ECE70120EAE74FF0FF30E7E700BFE8
:1058C0002DE9F04106460D4607683B78042B24D0AD
:1058D0004FF40013AB4241D915F01F0F40D135638F
:1058E000B4682CB93B78022B02D9FC6A0023F3710F
:1058F000B4B93B89B3EB551F34D9FB6AB363746306
:10590000B36BABB303EB5523B3633C37C5F3080567
:105910003D44F5630020BDE8F0814FF08053D9E7A6
:10592000B7F80A804FEA482801E0A5EB080545458D
:105930000ED321463046FFF711FF0446B0F1FF3F7A
:1059400012D0012812D9FB698342EED80220E2E787
:1059500021463846FFF77AF9B063D0E70220DAE74C
:105960000220D8E70220D6E70120D4E70220D2E7C0
:105970000220D0E72DE9F84380460768894631B90F
:105980007E69A6B1FB69B34212D8012610E0FFF789
:10599000E5FE0546012840F2C680B0F1FF3F00F069
:1059A000C380FB69834200F2BF804E4600E00126BF
:1059B000BD69002D00F0B8803B78042B03D04E4524
:1059C00055D0344695E0012231463846FFF78EFD2A
:1059D0000546431E13F1030F00F2A68001231A4669
:1059E00001463846FFF7C6FD0346022800F09F80B7
:1059F000012800F09E80B9F1000F1ED1022288F824
:105A0000072098F80720022A00F0828009F101029D
:105A1000AA4222D0D8F81C3013B90123C8F81C3090
:105A20002A4649464046FFF767FE0346002871D1E3
:105A30000122C8F81C202C463EE098F80720022AD4
:105A4000DFD1721CAA42DCD0D8F80820B21AC8F8FC
:105A50001820032288F80720D3E7D8F81C2022B1A9
:105A60000132C8F81C202C4626E00222F9E7741CFB
:105A7000FB69A34200D8022421464046FFF76EFE90
:105A80000546012850D0B0F1FF3F4DD038B17B69B9
:105A9000012B96D9FA699A4293D91E4691E7002CB8
:105AA0008FD04FF0FF3221463846FFF79FFD034667
:105AB00010B9B9F1000F24D173BB7C61BA69FB69DD
:105AC000023B9A4201D8013ABA613B7943F00103A3
:105AD0003B71254628E021464046FFF73FFE05463C
