:020000040800F2
:1000000000010020C10000082D1B000841C60008A7
:100010007915000879150008791500087915000888
:100020007915000879150008791500087915000878
:100030007915000879150008791500087915000868
:1000400079150008F93000082D31000879150008ED
:1000500079150008B52F0008F12F00082D30000891
:1000600079150008AD2D0008692B0008DD2B00086C
:100070006946000879150008791500081D2E00084A
:100080008534000879150008791500089D340008AA
:100090007915000879150008791500087915000808
:1000A0007915000879150008791500082D35000824
:1000B000791500087915000879150008013A00083B
:1000C00072B6224880F30988022080F31488BFF3B7
:1000D0006F8F01F033FA03F06BFD1D481D491E4A76
:1000E000914202DA08600431FAE71C49174A91424A
:1000F00002DA08600431FAE719491A4A1A4B9A429F
:1001000004DA0868106004310432F8E70020174967
:10011000174A914202DA08600431FAE701F014FA52
:1001200001F00EFA134C144DAC4203DA21688847F3
:100130000434F9E70CF000F9104C114DAC4203DA2D
:10014000216888470434F9E70E4908472003002056
:1001500055555555000000200001002000010020E9
:10016000A8A5010820030020B0050020B00500204C
:100170006C3B0020C0000008C0000008C000000860
:10018000C000000845150008F0B544464D465646E7
:100190005F46F0B46B46CB60C3689D46F0BCA0469A
:1001A000A946B246BB46F0BD62B6281CA047002057
:1001B00001F06CFC01F0CCFB014A024B1360FEE73E
:1001C00004ED00E00000008002B4714649084900D7
:1001D000095649008E4402BC7047C04602B47146BD
:1001E00049084900095C49008E4402BC7047C0467A
:1001F00003B47146490840004900095A49008E4439
:1002000003BC7047002243088B4274D303098B421E
:100210005FD3030A8B4244D3030B8B4228D3030CD6
:100220008B420DD3FF22090212BA030C8B4202D378
:100230001212090265D0030B8B4219D300E0090AA0
:10024000C30B8B4201D3CB03C01A5241830B8B42A9
:1002500001D38B03C01A5241430B8B4201D34B0392
:10026000C01A5241030B8B4201D30B03C01A5241F7
:10027000C30A8B4201D3CB02C01A5241830A8B427C
:1002800001D38B02C01A5241430A8B4201D34B0265
:10029000C01A5241030A8B4201D30B02C01A5241C9
:1002A000CDD2C3098B4201D3CB01C01A524183097D
:1002B0008B4201D38B01C01A524143098B4201D3B7
:1002C0004B01C01A524103098B4201D30B01C01AE2
:1002D0005241C3088B4201D3CB00C01A524183085C
:1002E0008B4201D38B00C01A524143088B4201D389
:1002F0004B00C01A5241411A00D2014652411046E9
:100300007047FFE701B5002000F0F0F802BDC046DD
:100310000029F7D076E7704703460B437FD40022CD
:1003200043088B4274D303098B425FD3030A8B4289
:1003300044D3030B8B4228D3030C8B420DD3FF22F3
:10034000090212BA030C8B4202D31212090265D0C1
:10035000030B8B4219D300E0090AC30B8B4201D374
:10036000CB03C01A5241830B8B4201D38B03C01ABB
:100370005241430B8B4201D34B03C01A5241030B32
:100380008B4201D30B03C01A5241C30A8B4201D3E3
:10039000CB02C01A5241830A8B4201D38B02C01A8E
:1003A0005241430A8B4201D34B02C01A5241030A05
:1003B0008B4201D30B02C01A5241CDD2C3098B42EA
:1003C00001D3CB01C01A524183098B4201D38B0167
:1003D000C01A524143098B4201D34B01C01A52410A
:1003E00003098B4201D30B01C01A5241C3088B424F
:1003F00001D3CB00C01A524183088B4201D38B003A
:10040000C01A524143088B4201D34B00C01A5241DB
:10041000411A00D201465241104670475DE0CA0FB2
:1004200000D04942031000D34042534000229C4672
:1004300003098B422DD3030A8B4212D3FC2289017C
:1004400012BA030A8B420CD3890192118B4208D352
:10045000890192118B4204D389013AD0921100E0B4
:100460008909C3098B4201D3CB01C01A52418309C8
:100470008B4201D38B01C01A524143098B4201D3F5
:100480004B01C01A524103098B4201D30B01C01A20
:100490005241C3088B4201D3CB00C01A524183089A
:1004A0008B4201D38B00C01A5241D9D243088B42F0
:1004B00001D34B00C01A5241411A00D20146634693
:1004C00052415B10104601D34042002B00D54942F7
:1004D000704763465B1000D3404201B5002000F036
:1004E00005F802BD0029F8D016E770477047C046EE
:1004F0008446081C6146FFE71FB500F055FB002845
:1005000001D40021C8421FBD10B500F0D7FA404207
:10051000013010BD10B500F047FB002801DB0020C2
:1005200010BD012010BDC04610B500F03DFB0028F5
:1005300001DD002010BD012010BDC04610B500F047
:10054000E5FA002801DC002010BD012010BDC046E6
:1005500010B500F0DBFA002801DA002010BD012000
:1005600010BDC0469E2110B5C905041CFFF7F0FF61
:10057000002803D1201C00F037FE10BD9E21201C56
:10058000C90500F075FC00F02FFE80231B069C4679
:100590006044F2E7F8B54C02640A4746A0464C00B6
:1005A000C90FCE4689464146430246005B0A360ED5
:1005B000240E80B5C50F9C463200D800C900371BF9
:1005C0004D4560D0002F48DD002C00D17CE0FF2E8F
:1005D00000D183E08023DB04194301231B2F07DCB8
:1005E0000B002022FB40D71BB9404A1E91410B4310
:1005F000C31A5A0100D4A8E09B019C09200000F016
:1006000077FF05388440864200DDADE0861B22007E
:1006100020200136F240861BB44023005C1EA3411B
:10062000002613435A0704D00F221A40042A00D090
:1006300004335A0100D48BE00136F2B2FF2E00D110
:100640008FE09B015B0A5B02D205580AED0710435D
:1006500028430CBC90469946F8BD002F49D1FE2492
:10066000771C3C4200D086E0002E00D0DEE000285F
:1006700000D1D1E00029E6D0431A5C0100D4F1E0BA
:100680000B1A4D46CEE7002F4ADD002C3FD0FF2E3F
:1006900024D08023DB04194301231B2F07DC0B002C
:1006A0002022FB40D71BB9404A1E91410B431B1827
:1006B0005A014AD50136FF2E53D0012271491A4002
:1006C0005B080B401343ADE7002943D0013F431AB9
:1006D000002F00D18DE7FF2E00D07EE76346002B70
:1006E0003FD080236246DB0313435B025B0AFF2299
:1006F000A9E7A21B002E60D1002878D0013A002A79
:1007000000D1B5E0FF2C5DD14D46C446E6E7002997
:1007100020D0013F4318002FCAD0FF2EBCD1DDE707
:10072000002F32D1FE24013634427AD1002A62D120
:10073000002800D1A0E0002900D184E7431800265A
:100740005A0102D5504A013613405A0700D06BE7D0
:10075000DB089C46FF2EC1D063465B025B0AF2B207
:1007600071E7FF2200236EE7474B361A23405A07F2
:1007700000D059E7ECE7441A630161D4002C00D0A3
:100780003CE70025002200235DE7A21B002E28D1B4
:1007900000282DD0013A002A70D0FF2CB5D00123BB
:1007A0001B2A07DC03002026D340B21A9040421EC9
:1007B000904103435B1826007AE7FF2CA4D08023E6
:1007C000DB04184301231B2A07DC03002025D34048
:1007D000AA1A9040421E90410343CB1A4D46260070
:1007E00007E7FF2C91D08023DB041843D7E74D4661
:1007F000C4462600AEE7002887D0002900D16DE767
:1008000080236246DB031A4200D167E742461A4260
:1008100000D063E7C44661E7002926D04D46434631
:1008200011E7FF2E9DD043185B088EE700280AD100
:10083000002900D068E780230025DB03FF2202E7C0
:100840000C1A4D46DAE6002900D147E780236246BC
:10085000DB031A4200D141E742461A4200D03DE78D
:100860004D4652E7002B00D06FE700250023EAE653
:100870000B1A4D462600BCE64346E4E64318260024
:1008800016E7C046FFFFFF7DFFFFFFFBF0B54F46B9
:100890004646D64644024500C0B5640A0F1C2D0EDC
:1008A000C60F002D4FD0FF2D55D08023E400DB0470
:1008B0001C43002399469A467F3D7B0278005B0AE1
:1008C0009846000EFF0F002831D0FF2810D080225C
:1008D000DB00D2041A43904600217F382D1A4B4684
:1008E00032000B4371489B00C3587A40D2B29F46F6
:1008F000FF3D002B54D102234946194332000B001F
:100900007A40033BD2B20C2B04D869499B00CB58E8
:100910009F463A00002000246402C305600AD20703
:10092000184310431CBC90469946A246F0BD002BCC
:100930002BD101234946320019438B005D497A408F
:10094000CB58D2B29F46002C13D104239946033BC7
:1009500000259A46B1E7002C05D108239946063BAD
:10096000FF259A46A9E70C239946093BFF259A469D
:10097000A3E7200000F0BCFD7625431F9C40002328
:100980006D422D1A99469A4697E7180000F0B0FD7F
:100990004246431F9A402D189046763500219EE727
:1009A00003219CE717003A00FF200024B4E78024CD
:1009B0000022E403FF20AFE732005346022BF1D0C0
:1009C000032B6CD0012BA5D028007F30002846DDFA
:1009D000630704D00F232340042B00D004342301E9
:1009E00003D52800344B80301C40FE28DCDCA401F9
:1009F000640AC0B290E78023DB031C4227D0424642
:100A00001A4224D144461C436402640A3A00FF207F
:100A100082E73A0044468A46CFE7414663014C01EB
:100A2000A34235D21B200021013D01271E004900B1
:100A30005B00002E01DB9C4201D81B1B39430138AF
:100A40000028F3D11C00631E9C410C43BCE78023AB
:100A5000DB031C436402640A3200FF205CE70123CD
:100A6000181A1B2800DD55E79E352300AC40C34013
:100A7000611E8C411C43630704D00F232340042BC9
:100A800000D00434630107D4A401640A002043E7C2
:100A90001B1B1A200121C8E7012000243CE780230A
:100AA000DB031C436402640AFF2035E7D0490108D8
:100AB000104A0108444A0108FFFFFFF770B54200E1
:100AC0004E024C0045026D0A120EC30F760A240E28
:100AD000C90FFF2A0FD0FF2C11D00120A24200D055
:100AE00070BDB542FCD18B420DD0002AF8D1280050
:100AF000451EA841F4E70120002DF1D1EBE70120CC
:100B0000002EEDD1E9E70020EAE7C04670B54A00C3
:100B10004E02450244006D0A240EC30F760A120EDF
:100B2000C90FFF2C15D0FF2A0ED0002C15D1002A9A
:100B300001D1002E1CD0002D14D08B4227D00220D2
:100B4000013B1840013870BD002EEED0022040421B
:100B5000F9E7002DFAD1FF2A0ED0002A0ED1002E7F
:100B6000EDD00BE001230139994308000130EAE799
:100B70000020002DE7D0E2E7002EE7D18B42DED146
:100B8000944205DD0221581E08400138DBE70024AD
:100B9000A24204DCB542D2D80020B542D3D2581EBE
:100BA000012398430130CEE730B5420044024D02A4
:100BB000C30F4800640A120E6D0A000EC90FFF2A07
:100BC00017D0FF2808D0002A17D1002808D1002DFF
:100BD00006D1002C23D007E0002DF4D002201EE027
:100BE000002C17D08B421FD00220013B1840013847
:100BF00015E0002CF2D1FF2812D0002801D1002DE1
:100C0000F2D08B42F0D182420FDD0221581E084003
:100C1000013804E00123013999430800013030BD57
:100C2000002DEED00220FAE70022904204DCAC4214
:100C3000DAD80020AC42F2D2581E0123984301308A
:100C4000EDE7C046F0B54F464646D646440245005D
:100C5000C0B58846640A2D0EC70F002D49D0FF2D60
:100C60004FD08023E400DB041C43002399469A46BE
:100C70007F3D434642465E02D20F5B00760A1B0E62
:100C8000904646D0FF2B12D080220020F600D204DE
:100C90007F3B1643ED186A1C434694464A467B4008
:100CA0000F2A00D974E0704992008A589746FF35A0
:100CB000002E54D14A4602231A4391460220EAE705
:100CC0004346340082465246022A2AD0032A00D1E3
:100CD000C3E0012A00D082E0002200246402D20591
:100CE000600ADB07104318431CBC90469946A24695
:100CF000F0BD002C27D104239946033B00259A46DA
:100D0000B7E7002C19D108239946063BFF259A46E0
:100D1000AFE7002E08D14A4601231A43914601202D
:100D2000B9E7FF220024D9E7300000F0E1FB431FC0
:100D30002D1A9E40763D0020ADE70C239946093BD5
:100D4000FF259A4695E7200000F0D2FB7625431F49
:100D50009C4000236D422D1A99469A4689E74A46DF
:100D600003231A439146032095E73B00ABE7802419
:100D70000023E403FF22B1E78023DB031C4245D0BC
:100D80001E4243D133435C02640A4346FF22A5E777
:100D9000200C2404210C0F00320C3604360C77434F
:100DA00051434643504389193A0C5218964203D98D
:100DB00080214902884640443F0411043F0CC91970
:100DC0008C01661EB441890E2143140C2418A40121
:100DD0000C4322013CD50122610814400C436046BB
:100DE0007F3000281ADD620704D00F222240042A37
:100DF00000D00434220103D560461C4A80301440E0
:100E0000FE288EDCA401640AC2B267E78020C0031A
:100E100004436402640A3B00FF225FE70122101AC8
:100E20001B2800DD58E762469E3221009440C140F5
:100E3000621E94410C43620704D00F222240042A10
:100E400000D00434620105D4A401640A002245E7FD
:100E5000AC46C4E70122002440E78022D2031443B9
:100E60006402640AFF2239E77C4A0108FFFFFFF7AA
:100E7000F8B543025B0ADA00DE4693464A02520A9C
:100E8000454690464E4657464446E0B54A00470020
:100E90003F0EE400120EA1469C463E00C50FC90F4E
:100EA000BC1AFF2A00D177E001208246504641401B
:100EB0008D4200D180E0002C51DD002A00D073E08B
:100EC0004B46002B00D1DDE0013C002C0FD0FF2F62
:100ED00000D1A5E001231B2C09DC20224946121B6E
:100EE00091404B460A00E340511E8A4113435A4643
:100EF000D31A5A0100D4C0E09B019C09200000F0E5
:100F0000F7FA230005388340864200DDC4E0861BE3
:100F10001A0020200136F240861BB3405C1EA3411C
:100F2000002613435A0704D00F221A40042A00D087
:100F300004335A0100D4A3E00136F7B2FF2E00D1EA
:100F4000A7E09B015B0A5802FF05400AED07384302
:100F500028433CBC90469946A246AB46F8BD002CBF
:100F60004FD1FE247A1C144200D09CE05A46002F38
:100F700000D003E1002A00D1F4E04A46002AE2D082
:100F80004B465A46D31A5A0100D405E14B465A46FD
:100F90000D009B1A0026C5E74846002800D183E7CC
:100FA0008D4251D0002CDADDFF2F39D080234A4604
:100FB000DB041A4391468DE7002C45DD002A3AD028
:100FC000FF2F2DD080234A46DB041A43914601238C
:100FD0001B2C09DC20224946121B91404B460A007B
:100FE000E340511E8A4113435B445A0145D5013603
:100FF000FF2E4ED001226F491A405B080B4013436D
:1010000090E7D41B0D00002F72D15B46002B00D15E
:1010100092E0013C002C00D1C5E0FF2A6FD1C4460C
:101020006346002B35D080236246DB0313435B020B
:101030005B0AFF2787E74B46002B23D0013C002C9F
:1010400077D0FF2FC3D1EBE7002C38D1FE227E1CD6
:10105000324200D08CE05A46002F70D1002A00D1D5
:10106000A6E04A46002A00D16DE75B464B440026C5
:101070005A0102D5504A013613405A0700D053E7AF
:10108000DB089C46FF2ECBD063465B025B0AF7B2BF
:1010900059E7FF27002356E7474A361A13405A07F5
:1010A00000D041E7ECE74B465A46D41A63016FD4AF
:1010B000002C00D022E700250027002343E7D11BA6
:1010C000002F2CD0FF2AAAD080235846DB041843D7
:1010D000834601231B2908DC5B4620245846CB406D
:1010E000611A8840411E884103434B4416007CE747
:1010F000FF2A94D080235946DB0419438B460123F1
:101100001B2C08DC20215B465846E3400C1BA0400A
:10111000411E8841034349461600CB1AE9E65B4667
:10112000002B09D001390029DFD0FF2AD1D1C446D4
:1011300076E75B464B4458E7C4461600A2E7002A10
:1011400000D16CE74A46002A00D169E78022D20329
:10115000134200D164E74346134200D060E70D001C
:10116000C4465DE74B46002B1AD00D004346EAE625
:10117000FF2E8ED05B464B445B087EE7002AE1D110
:101180004B46002BEBD180230025DB03FF27DAE65B
:101190004B460D009C1AB1E60026002B00D06CE7F0
:1011A00000250023CFE64B46594616005B1AA0E601
:1011B0004346C8E6FFFFFF7DFFFFFFFB42024B02F5
:1011C00040004900520A5B0A090E000EFF2806D0B3
:1011D0000020FF2902D11800431E98417047FE38B5
:1011E000002AFBD1F4E7C04641024200C30F490A7E
:1011F000120E00207E2A03D99D2A02D9094A981886
:101200007047802000040143952A07DC9620821A4B
:10121000D1404842002BF3D10800F1E7963A9140C3
:10122000F7E7C046FFFFFF7F70B5002812D0C31755
:10123000C5185D40C40F280000F05AF99E22121A0A
:10124000962A11DCD2B2082833DD083885406802BE
:10125000400A02E00024002200204002D205400A99
:10126000E4071043204370BD992A0BDD05232900B4
:101270001B1AD94003001B339D402B005D1EAB4160
:1012800019430D00052801DD431F9D402B000A492D
:101290000B406E0709D00F263540042D05D00433CE
:1012A0005D0102D59F220B40121A9B01580AD2B24F
:1012B000D3E76802400AD0E7FFFFFFFB70B5041ECA
:1012C0000DD000F015F99E22121A962A0EDCD2B229
:1012D00008282EDD083884406002400A01E0002220
:1012E00000204002D205400A104370BD992A09DD52
:1012F000030021001B3399404B1E994105231B1A03
:10130000DC400C43052801DD431F9C4023000A49B3
:101310000B40650709D00F252C40042C05D0043361
:101320005C0102D59F220B40121A9B01580AD2B2CF
:10133000D7E76002400AD4E7FFFFFFFB70B541002A
:101340004602C40FFE20090E4B1C750A184214D029
:10135000E0239B006D07360BCB1800210A0D2800F7
:1013600012051C4D32435B052A405B0813435B00AA
:10137000E4075B082343190070BD002914D1002D38
:101380001ED0280000F0B4F80A281CDC0B232A0029
:101390001B1ADA40030015339D400F4B12031B1A32
:1013A0005B05160B5B0DD8E7002D06D0320B8026AF
:1013B00036036D071643094BCFE7084B0026CCE7F1
:1013C00000230026C9E703002A000B3B9A400025B2
:1013D000E3E7C046FFFF0F8089030000FF0700001E
:1013E0004A00F0B50B03520D3D4D5B0A470F561CEA
:1013F000C90F1F43C4002E4228D03A4BD518FE2DEA
:1014000008DDFF2200204002D205400AC907104330
:101410000843F0BD002D2DDD80010200501E8241E9
:10142000FB00640F134323435A0757D00F221A407F
:10143000042A00D004338022D2041A404ED0013551
:10144000EAB2FF2DDDD09B01580ADCE73C43002ABD
:1014500006D1002C0BD005239B01580AD2B2D2E74B
:10146000002CCED08020C0033843FF22CBE70022DF
:101470000020C8E72B00173322DB80231E261B0425
:101480003B43761B1F2E1DDD02204042451B1800EA
:10149000E8400500202E04D013488446624493405F
:1014A0001C4323005C1EA3412B4300255A07BDD1DA
:1014B0008020C00418400122A842C4D10200CBE71A
:1014C0000022C8E709481018220084402500834004
:1014D0006C1EA541F2402B431343E6E72A00BBE70D
:1014E000FE07000080FCFFFFA2FCFFFF82FCFFFF65
:1014F0001C2101231B04984201D3000C10391B0A44
:10150000984201D3000A08391B09984201D3000907
:10151000043902A2105C40187047C046040302025E
:101520000101010100000000000000000023C25C76
:101530000133002AFBD1581E704700007047C04697
:101540007047C046FEE7C046094A08E0002102C3D2
:10155000D1689942FAD81032064B9A4207D21168E4
:10156000536890689842F3D901C901C3F9E77047FD
:10157000BC4A01083C4B0108FEE7C046FEE7C046F6
:1015800010B500F0F5F800F063F80B4C80220B4921
:10159000200000F0FFF9303CA061094BC36120231B
:1015A0000122C254074A136A07490B40136262B60C
:1015B000064800F01FFA10BDA0060020744B010879
:1015C0000001002000ED00E0FFFF00FF3C4B0108A0
:1015D00072B6014BD862FEE77006002070B51B4B57
:1015E000DC698023DB055A6A08E062B62069A847F7
:1015F00072B6164BDC698023DB055A6AA36813496F
:10160000886A111A8B4211D8104A1B1893622168FC
:1016100013001C334B602168D161E5680021E16053
:10162000D2699A42E1D100F0D1FADEE70749CC69EC
:101630001C318C4206D01818801A012803D91018C2
:1016400000F0CAFA70BD0220F9E7C046700600201B
:10165000054B1A001C32DA611A62012252425A62A8
:1016600000229A627047C0467006002070B50500DF
:101670000361C2608023DB05586A012913D91A4B24
:10168000DA691C339A4210D00818174B9C6A041B65
:101690009368A34217D8144BDB699A68A24215D20B
:1016A000A41A1B68F9E70221E9E70F4B9862DD6194
:1016B0001D621A001C322A606A60A960986A40188C
:1016C00000F07CFA0FE000F087FAE4E72B605A683C
:1016D0006A6015605D60AC609A68141B9C60024B88
:1016E000012252425A6270BD7006002010B51E4B96
:1016F000DB69834211D0436802681A60036842685C
:101700005A600023C3600368184A934204D0826879
:1017100099688C4662449A6010BD0168124BD96189
:101720001A001C324A600021C160DB69934216D066
:10173000826899688C4662449A608023DB05586A07
:10174000094A936AC11AD26992688A42E4D91B1A7B
:101750009B18012B06D9181800F03EFADCE700F0C0
:1017600035FAD9E70223F6E7700600208C06002040
:10177000034B1B605B6000229A601B615B617047DA
:101780007006002020230022C254064B1B689A6872
:1017900081688A42FAD203605A68426010605860D9
:1017A0007047C0467006002010B572B62023C35C97
:1017B000032B0CD0042B0ED0002B06D001235B4250
:1017C0004362FFF7DFFF62B610BD62B6FCE7436A13
:1017D00000221A60F2E742680368136042685A60A8
:1017E000ECE7C04620230022C254064B1B689A68CF
:1017F00081688A42FAD803605A6842601060586073
:101800007047C0467006002010B50D4B9C69202122
:1018100060541A681068186043609A610123535439
:10182000EFF30983243BE269934205D3044B9869A3
:101830002100FEF7A9FC10BD0248FFF7C9FEF5E73D
:10184000700600205C4B010810B586B004004B1CEC
:1018500013D00B4B9B690B4A01A8FFF707FF200031
:10186000FFF7D2FF049B002B02D001A8FFF73EFF39
:10187000034B9B69586A06B010BDFFF7C5FFF7E739
:1018800070060020A917000870B50400104B986975
:101890006162A3688268934203D82000FFF772FF59
:1018A00070BDFFF76FFF0500094B9C6120230122EB
:1018B000E254EFF30983243BC269934204D3290025
:1018C0002000FEF761FCEBE70248FFF781FEF6E738
:1018D000700600205C4B0108044B1A6892689B69F3
:1018E00098689042804140427047C0467006002090
:1018F00010B50E4B98691A68116819604B609A61AF
:1019000020230121D154FFF76DFF0400EFF3098379
:10191000243BC269934205D3044B98692100FEF72A
:1019200033FC10BD0248FFF753FEF5E770060020B8
:101930005C4B010810B5054B1A6892689B699B685F
:101940009A4200D810BDFFF7D3FFFBE770060020D6
:1019500010B50E4B98691A68116819604B609A614E
:1019600020230121D154FFF73DFF0400EFF3098349
:10197000243BC269934205D3044B98692100FEF7CA
:1019800003FC10BD0248FFF723FEF5E770060020B8
:101990005C4B0108826020230222C25401330022E2
:1019A000C25401330132C2548161034B03615A694D
:1019B000426110615861704770060020884202D26F
:1019C00002700130FAE7704710B501008368180013
:1019D00028384A68C2614C3BC3600A691A614A6987
:1019E0005A61034A1A62CA680968FFF7D3FF10BD3B
:1019F000A901000810B50400552281684068FFF76E
:101A0000DDFF72B62000FFF7DFFF04000021FFF7C3
:101A10003BFF62B6200010BDF8B506000C001500B3
:101A20001F0041185522FFF7C9FF72B62000283861
:101A30003018C6610300243BC3601F61069A5A61D7
:101A4000064A1A622A000649FFF7A4FF0400002193
:101A5000FFF71AFF62B62000F8BDC046A9010008D2
:101A60006C4B010810B5084B9B69586222229A5CA6
:101A7000002A05D15A69196911611A695B695361B4
:101A80000F20FFF7C1FE10BD7006002010B572B622
:101A9000FFF7E8FF10BDC04610B5010072B6082080
:101AA000FFF7D2FE62B610BD10B500290AD0074B71
:101AB0009B69186042685A60136043600420FFF716
:101AC000C3FE10BD01204042FBE7C0467006002067
:101AD00010B50368984206D01A68026050605962D7
:101AE0001800FFF74FFE10BD70B504000D00206810
:101AF000844206D0036823605C604562FFF742FEC3
:101B0000F5E770BD72B6024B186962B67047C04601
:101B10007006002072B60069034B984201D062B68D
:101B200070470020FBE7C0467006002080B500AF7C
:101B3000EFF30983203383F3098862B6BD4680BD85
:101B4000B0B500AF0F3010D072B6EFF309842300A8
:101B5000203B83F3098880225204DA61FFF7BCFE40
:101B6000002804D0203C044BA361BD46B0BD203CFE
:101B7000024BA361F9E7C046B5010008B8010008AF
:101B800010B501F095F80A4801F026FB00F0FAFACA
:101B900000F00CFB00F054FB00F034FE00F014FCED
:101BA00000F096FF02F020F800F004F810BDC046E7
:101BB000F04C010810B501F045F910BD8023DB059C
:101BC000586300221A610232DA6070478023DB0515
:101BD0000022DA607047C0468023DB0558637047F7
:101BE0008368013B836003698269944663440361AF
:101BF0004269934201D3036A03617047C368196065
:101C0000836801338360C368826994466344C36018
:101C10004269934201D3036AC360704710B5836879
:101C2000002B01D0002010BDFFF73EFFFBE7C046B0
:101C300010B5C3680269934204D00023002B06D17B
:101C4000002010BD8368002BF8D00123F6E7FFF7D2
:101C50002BFFF6E730B5006040600024846001612E
:101C6000C16004321D0055434D1945618261C36155
:101C7000016244628462039BC362049B036330BDC0
:101C800010B500238360026A0261C260436283620E
:101C900002214942FFF728FF10BDC04610B50400DD
:101CA000FFF7ACFF00212000FFF712FF10BDC04678
:101CB00010B50400FFF7B2FF002805D12269131DFB
:101CC000636212689B18A36210BDC04610B5040081
:101CD000FFF786FF00236362E36A002B01D0200038
:101CE000984710BD70B5040072B6436A002B09D046
:101CF000636A1D7801336362A26A934208D262B6B6
:101D0000280070BDFFF7D4FF051EF1D062B6F7E7DB
:101D10002000FFF7DBFFF2E7C3680269934204D0BB
:101D20000022002A06D1181D70478268002AF8D0C8
:101D30000122F6E70020F7E78368002B05D003694E
:101D40001B680B600069043070470020FCE7C04648
:101D500010B50400FFF744FF00212000FFF7B8FE94
:101D600010BDC04610B50400FFF762FF002806D181
:101D7000E3681A1D6262A26994466344A36210BDBF
:101D800010B50400FFF73AFF00236362E36A002BFB
:101D900001D02000984710BDF8B5CE46474680B523
:101DA0000400884691461F0072B600261EE0434696
:101DB000002B0BD008992000FFF7D4FF002818D083
:101DC00062B630000CBC90469946F8BD08992000D8
:101DD000FFF76EFFF2E72A000100484612F0C8FD47
:101DE00016E02000FFF772FFB742E9D9636A002BC3
:101DF000DDD0606AA36A1B1ABD1B9D4200D31D0083
:101E00004346002BE7D04B4699192A0012F0B0FD4B
:101E1000636A5B1963627619A26A9342E4D343460C
:101E2000002BDED0A369191F2000FFF7A9FFDBE715
:101E300000B583B0009313000A000021FFF7ACFF48
:101E400003B000BD70B504000D0072B6436A002BEC
:101E50000AD0636A1D70636A01336362A26A9342A7
:101E600009D262B6002070BD1100FFF77BFF002889
:101E7000EFD062B6F7E7A369191F2000FFF780FFD4
:101E8000EFE7C04600B583B0009313000A000121BC
:101E9000FFF782FF03B000BD10B504008368002B7C
:101EA0000FD1416A00290ED0C368C91A043900292C
:101EB00001D1002006E0FFF7A1FE002363620120AC
:101EC00000E0002010BD0020FCE7C04603000269CE
:101ED000013A0261C1694A1CC261C068405C59692B
:101EE0008A4201D30022DA617047C0460369013398
:101EF000036183695A1C8261C268D1548369426953
:101F0000934201D3002383617047C04610B5036933
:101F1000002B01D0002010BDFFF7C6FDFBE7C04637
:101F200010B503694269934201D2002010BDFFF74A
:101F3000BBFDFBE7F0B5C64600B582B005000191D8
:101F40000469944200D31400002C13D0012C16D045
:101F50006F69EE69BB1B98469C4216D2EB689919D3
:101F60002200019812F004FDEB691B19EB612B694B
:101F70001B1B2B61200002B004BC9046F0BD280062
:101F8000FFF7A4FF019B1870F4E7EB68991942462C
:101F9000019812F0EDFC019B43441800F61BA219B6
:101FA000E96812F0E5FCEE61DEE7C046F0B5CE462A
:101FB00000B582B00500019147690369FC1A94429B
:101FC00000D31400002C12D0012C15D0AE69BB1B1D
:101FD00099469C4216D2EB6898192200019912F09A
:101FE000C7FCAB691B19AB612B691B192B61200066
:101FF00002B004BC9146F0BD019B19782800FFF7A0
:1020000075FFF4E7EB6898194A46019912F0B0FCA5
:10201000019B4B441900F61BA219E86812F0A8FCBA
:10202000AE61DEE710B50060406000240461C1606D
:10203000C46184614261836010BDC04610B5002355
:10204000C3618361036102214942FFF74DFD10BD69
:1020500010B5040003694269934207D2FFF746FFB7
:1020600000212000FFF734FD002010BD0120404278
:10207000FBE7C04670B5050072B6FFF747FF041EC8
:1020800002D062B6200070BD2800FFF71FFF0400D9
:10209000AB68002BF5D028009847F2E7F0B5CE46A4
:1020A00000B582B006000D001700019372B600243F
:1020B00002E04C44A74211D901993000FFF726FFF6
:1020C00000280BD13A1B29193000FFF733FF814656
:1020D000B368002BEDD030009847EAE762B62000E5
:1020E00002B004BC9146F0BD70B505000E0072B69A
:1020F0001100FFF715FF041E02D062B6200070BD6C
:1021000031002800FFF7F2FEAB68002BF5D0280065
:102110009847F2E770B504000369002B08D0FFF779
:10212000D5FE050000212000FFF7D2FC280070BD7D
:1021300001256D42FAE7C046F0B5CE4600B582B043
:1021400006000D001700019372B6002402E04C4413
:10215000A74211D901993000FFF7E2FE00280BD108
:102160003A1B29193000FFF721FF8146B368002B85
:10217000EDD030009847EAE762B6200002B004BC18
:102180009146F0BD10B500F081FE10BD0123037033
:10219000002343607047C04610B5040072B641602A
:1021A00000F0ECFE0223237062B610BD10B501F002
:1021B000BFF810BD01230370002343607047C04681
:1021C00010B5040072B6416001F0C6F80223237016
:1021D00062B610BD10B50323037001F00DF910BDF8
:1021E00010B572B6FFF7F6FF62B610BD10B5040069
:1021F0000423037001F024F90223237010BDC046AC
:1022000010B5012108304942FFF734FF10BDC04628
:1022100010B5012228305242FFF766FF10BDC046BC
:1022200010B5012308305B42FFF738FF10BDC046F0
:1022300010B5012328305B42FFF77EFF10BDC0467A
:1022400010B501F07FF910BD70B504000B0015004A
:10225000094A0260012202710830210048310F3220
:10226000FFF7E0FE20002830210058312B0010221B
:10227000FFF7D8FE70BDC0468C4B010810B50400B6
:1022800072B601F09BF90223237162B610BDC046FD
:1022900010B5040072B601F0ADF9012323712000DE
:1022A0002830FFF7CBFE20000830FFF7C7FEFFF70E
:1022B00041FB62B610BDC04610B582B0046B9023DE
:1022C000DB00E3581A681178042908D12179022922
:1022D00005D11289197901238B40134201D002B034
:1022E00010BD20003C3001A9FFF726FD021EF6D0EC
:1022F0009023DB00E35819791868019B00F0E4FA99
:10230000EDE7C04610B504009023DB00C3581A68FF
:10231000117804291AD10179022919D152895979E0
:1023200001238B40134201D0012010E00830FFF759
:10233000F3FC021E0ED09023DB00E058802341798D
:1023400000685B0000F0ACFA002000E0012010BD46
:102350000120FCE70120FAE710B5006BFFF7D2FF80
:1023600010BDC04610B5012108304942FFF7BAFC44
:1023700010BDC04610B59023DB00C3581B681B7806
:10238000042B05D101223C305242FFF75BFD10BD0A
:1023900002204042FBE7C04610B5012308305B42F3
:1023A000FFF746FD10BDC04610B59023DB00C358B3
:1023B0001B681B78042B01D0002010BD033B3C3070
:1023C0005B42FFF75FFDF8E77047C04630B583B06A
:1023D00004000F4B036001230371083021007031AA
:1023E00080256D0001940B4B009302232A00FFF718
:1023F00031FC20003C309E239B00E1180194064BE9
:10240000009302232A00FFF725FC03B030BDC0462D
:10241000AC4B010859230008B92200080A6872B6BB
:102420000B7909339B00D31858604B7911339B000B
:1024300098508B79002B03D009339B00D218506041
:102440009023DB00C1500223037162B67047C0467F
:1024500010B504000830FFF713FC20003C30FFF7F4
:102460000FFC10BD10B504000830FFF709FC200078
:102470003C30FFF705FC2000FFF744FF10BDC046CD
:102480007423C25C143B1340202B01D00020704702
:102490005533C35C212B05D0222B0FD0202B07D026
:1024A0000020F4E7084B83660723C3660120EEE7AC
:1024B000054B83660723C3660120E8E70023836694
:1024C000C3660120E3E7C0462003002030B583B097
:1024D00004009023DB00C3581A681178042908D13E
:1024E0000179022905D11289197901238B40134200
:1024F00001D003B030BD05003C352800FFF7CCFC0F
:102500000028F6D001A92800FFF716FC020090234E
:10251000DB00E35819791868019B00F0D5F9E8E76A
:1025200070B582B004000D000B0009339B00C31886
:102530005E68002E16D072B68B1C9B00C3185B68B9
:102540005B691B68002B0FD130003C3001A9FFF7FD
:10255000F3FB00280DD0019B02002900200000F0B1
:10256000B3F962B602B070BD30003C30FFF7F0FB4B
:10257000EAE7AB1C9B00E3185B685A6912681B8A88
:102580009A42EED1002300222900200000F09CF99D
:10259000E7E7C04610B5113189000C58002C11D066
:1025A00072B69023DB00E3581A685B7902339B0014
:1025B000D3185B689B695968002904D12000FFF794
:1025C000A1FE62B610BD20000830FFF767FBF5E7FB
:1025D0007047C04670B50400092956D88B002D4AB3
:1025E000D3589F4603007C3383660223C3660120D1
:1025F00070BD7623C35A012B01D00020F8E77C225E
:10260000835A02208343A352032904D00023A366E4
:10261000E3660120ECE7022213437C22A352F5E794
:1026200000238366C3661C4B03670120E0E7436811
:102630005D687623C15A0233C35ACAB2090AA84751
:10264000002824D04368A3660368E3660120CFE72F
:1026500003007F3383660123C3660120C8E7762326
:10266000C35C7F228354002B0DD004232370636846
:102670001B68002B02D00221200098470023A3668C
:10268000E3660120B4E70323F0E70020B0E7002071
:10269000AEE7C046CC4B0108DD260008002905D175
:1026A000034B83660223C366012000E000207047CD
:1026B000344C010810B50400002101F0F3F90021A9
:1026C000200001F0DDF963681B68002B02D00521B2
:1026D0002000984764230622E25410BD10B5040080
:1026E0007623C25A0833C25401F014F863681B6899
:1026F000002B02D00121200098470323237010BD36
:1027000010B504007823C05A693B03408022024080
:10271000012928D0002909D0032924D00C2946D129
:10272000264BA3660223E366012041E0002A09D07C
:10273000D9B2200001F084F8012808D002280CD07A
:10274000002035E0D9B2200001F066F8F4E71C4B18
:10275000A3660223E36601202AE01A4BA366022344
:10276000E366012024E07620205A002821D1002BA6
:1027700021D001290AD0002A14D0D9B2200001F0BA
:1027800091F90023A366E366012011E0002A04D03A
:10279000D9B2200001F0B2F9F3E7D9B2200001F07C
:1027A00093F9EEE7D9B2200001F06AF9E9E70020D9
:1027B00010BD0020FCE70020FAE7C046344C0108B9
:1027C000304C01082C4C010810B57423C25C143B3A
:1027D000134214D11533C15C563B1340012B08D072
:1027E000002B03D0022B07D0002009E0FFF7F2FEF8
:1027F00006E0FFF753FF03E0FFF782FF00E0002051
:1028000010BDC04610B500F059FF10BD0123037084
:10281000002343600022062A0BD813000A339B00D2
:10282000C31800215960130012339B001950013264
:10283000F1E70023038143817047C04610B50400CF
:1028400072B64160002205E0931C9B00E318002152
:1028500059600132072AF7D9200000F037FF022320
:10286000237062B610BDC04670B504000D0016009E
:102870008B1C9B00C3185A605069002803D00C229F
:10288000002112F07FF8B069002803D00C2200214B
:1028900012F078F82900200000F046FF70BDC04615
:1028A00070B501248C40A4B245892C4344818C1C12
:1028B000A40004196468A469A26023600023636013
:1028C00000F0E6FF70BDC04670B501248C40A4B294
:1028D00005892C4304818C1CA40004196468646974
:1028E000A26023600023636000F0E4FF70BDC04677
:1028F00010B504000223037000237C2283520021C0
:10290000023281540132815403814381002205E067
:10291000931C9B00E318002159600132072AF7D964
:1029200064230022E254200000F054FF63681B6817
:10293000002B02D000212000984710BD10B50523C0
:10294000037043681B68002B01D00321984710BD1A
:1029500010B50423037043681B68002B01D00421C9
:10296000984710BD70B5040000256423C5540200CB
:10297000743200F075FF256763689B68002B03D0F5
:1029800020009847002804D12000FFF71DFF0028F1
:1029900017D07A23E35AE26E9A4200D9E36672B600
:1029A0007423E356002B10DBE36E002B23D0A26EC2
:1029B00000212000FFF774FF64230422E25462B672
:1029C00070BD2000FFF776FEFAE7E36E002B08D01B
:1029D000A26E00212000FFF777FF64230122E2545A
:1029E000EDE70023002200212000FFF759FF6423B8
:1029F0000322E254E3E70023002200212000FFF736
:102A000063FF64230522E254D9E7C04610B50400F1
:102A10006423C35C062B19D89B00184AD3589F46E1
:102A2000C06E7A23E35A984205D2E368198AFDF70B
:102A30006FFC00290BD072B6002300220021200079
:102A4000FFF72EFF62B664230322E25410BD72B674
:102A5000002300222000FFF737FF62B66423022222
:102A6000E254F3E7036F002B00D098476423002261
:102A7000E254EBE7FFF71EFEE8E7C046F44B01081F
:102A800010B504006423C35C062B0DD89B000F4ACD
:102A9000D3589F4672B6002300220021FFF714FF8F
:102AA00062B664230522E25410BDC3689B695B686B
:102AB000002BF9D1036F002B00D09847642300222C
:102AC000E254F1E7FFF7F6FDEEE7C046104C0108CF
:102AD00010B501F02BF810BD70B583080C4DC03354
:102AE0009B005C5903220240D200FF269640B4436B
:102AF000890191400C435C511F220240400901238F
:102B0000934002006032920053518000435170BDE7
:102B100000E100E0124A116880235B000B43136060
:102B2000104B1B6AC02292001340013AFF3A9342B5
:102B300005D00C4B802252021A6200221A62094B05
:102B40001B6A1B040AD4074B196A802292000A43AD
:102B50001A62196A802212020A431A627047C0463A
:102B6000007000400010024070B57446194B2522D9
:102B70009E5C5A6911682420185CC1400F252940C9
:102B80000CD00B0083405360F200134BD558002D3E
:102B900004D01300104AD3185868A8470D4B3922A7
:102BA0009E5C9A6A11683820185CC1400F25294044
:102BB0000CD00B0083405360F200074BD558002D1A
:102BC00004D01300044AD3185868A8472000FEF721
:102BD000B7FF70BD384C0108C806002070B57446B8
:102BE000314B4D229E5CDA6B11684C20185CC14061
:102BF0000F2529400CD00B0083405360F2002B4B73
:102C0000D558002D04D01300284AD3185868A84777
:102C1000254B61229E5C1A6D11686020185CC140D2
:102C20000F2529400CD00B0083405360F2001F4B4E
:102C3000D558002D04D013001C4AD3185868A84753
:102C4000194B75229E5C5A6E11687420185CC14045
:102C50000F2529400CD00B0083405360F200134B2A
:102C6000D558002D04D01300104AD3185868A8472F
:102C70000D4B89229E5C9A6F11688820185CC140B8
:102C80000F2529400CD00B0083405360F200074B06
:102C9000D558002D04D01300044AD3185868A8470B
:102CA0002000FEF74DFF70BD384C0108C80600201B
:102CB00010B50C4B9A6A01214942996200229A622E
:102CC000186919611A61D86807490143D960DA6047
:102CD000D969802252050A43DA61FFF71BFF00F031
:102CE0007DF810BD00100240FFFFBFFF2D4A1368A2
:102CF00001210B4313602B4B1B689B07FBD5294B12
:102D00005A6803218A435A605A685A60254B5B68A7
:102D10000C221A42FAD1234B1968ED320A401A608C
:102D200000225A605A6B01210A435A631D4B5B6BA8
:102D30009B07FBD51B4A516B80235B020B435363FC
:102D4000184B5B6B9B03FBD5164A536A01210B435F
:102D50005362144B5B6A9B07FBD5124BE522D204EE
:102D60005A600022DA6210321A6319688022520413
:102D70000A431A600B4B1B689B01FBD50A4B1122BF
:102D80001A60084A536802210B435360054B5A6886
:102D90000C231340082BF9D1024A936901210B43FC
:102DA00093617047001002400020024010B5744645
:102DB000084B1B680F21194008D0064B5960064B81
:102DC0001B68002B02D0044A506898472000FEF789
:102DD000B7FE10BD00000240C80600200B4B0022C9
:102DE0001A600023062B0CDC9A00D2189100084AC6
:102DF0005218516800220A60D80006494250013337
:102E0000F0E7054B012252425A607047000700204C
:102E1000384C0108C80600200000024010B5744676
:102E20008023DB051B699B0703D42000FEF788FE87
:102E300010BD8023DB0500221A6172B6FEF7CEFBBF
:102E400062B6F2E710B50E49CB6901221343CB619C
:102E50000C498B6813438B608023DB050A49996218
:102E600001214942D962002199615963D9605960B1
:102E70005A611A6002310F20FFF72EFE10BDC046C6
:102E80000010024000580140BF12000010B5024877
:102E9000FFF77CF910BDC04604070020F0B583B0F1
:102EA0001F220A40012393400F2915D88A08019256
:102EB00003250D40AD000F242600AE40CF00426830
:102EC000BF583F093C40AC401E4F019A023292006D
:102ED000D559B5432C43D4511B4A13421ED1CA00C5
:102EE00044681259D2071BD5184CA2681A43A26035
:102EF000CA0044681259920717D5144CE2681A4365
:102F0000E2604268C90051184A68002A12D00F4A8C
:102F100011681943116051689943516003B0F0BDC5
:102F20000A4CA2689A43A260E2E7084CE2689A431E
:102F3000E260E6E7054A5168194351601168994318
:102F40001160EBE7000001400000847F00040140B5
:102F50001F230B4001229A40074B1868D1430840B9
:102F60001860586808405860986808409860D868A9
:102F70000140D9605A6170470004014070B50500F6
:102F80000378012B01D0002407E000F0FBF8FAE7FA
:102F900021002800FFF7DCFF01341F2C09D8E300D3
:102FA0006A689B585B07F3D521002800FFF776FF7E
:102FB000F2E770BD70B575460B4A54690323234090
:102FC0005361E30704D5094843685B6800219847CB
:102FD000A30704D505484368DB680121984728000A
:102FE000FEF7AEFD70BDC04600040140040700209E
:102FF00070B575460B4A54690C232340536163072F
:1030000004D5094843685B6902219847230704D522
:1030100005484368DB69032198472800FEF790FDC7
:1030200070BDC046000401400407002070B575461D
:103030002E4A54692E4B23405361E30604D52D4894
:1030400043685B6A04219847A30604D5294843686E
:10305000DB6A05219847630604D5264843685B6B05
:1030600006219847230604D522484368DB6B0721D5
:103070009847E30504D51F4843685B6C08219847CF
:10308000A30504D51B484368DB6C092198476305F9
:1030900004D5184843685B6D0A219847230504D579
:1030A00014484368DB6D0B219847E30404D51148AD
:1030B00043685B6E0C219847A30404D50D48436810
:1030C000DB6E0D219847630404D50A4843685B6FA3
:1030D0000E219847230404D506484368DB6F0F216F
:1030E00098472800FEF72CFD70BDC0460004014043
:1030F000F0FF00000407002010B57446094A50692B
:103100001368802149020B40034053610B4205D0F4
:10311000054884234268D358102198472000FEF7C1
:103120000FFD10BD000401400407002070B5754676
:10313000124B5A691C68D02149030C4014405C6151
:10314000A30305D50E488C234268D3581121984714
:10315000230305D50A489C234268D3581321984776
:1031600080235B031C4205D00548A4234268D35842
:10317000142198472800FEF7E3FC70BD00040140CD
:103180000407002010B503210520FFF7A5FC03214B
:103190000620FFF7A1FC03210720FFF79DFC032178
:1031A0000120FFF799FC03210C20FFF795FC032178
:1031B0000220FFF791FC10BD4B6843608B68836071
:1031C000CB68C3600B6943614B6903628B694362DF
:1031D0000B6803607047C04610B50400124A51697D
:1031E000FC23DB030B43536190202100C005FFF754
:1031F000E3FF21001C310D48FFF7DEFF21003831CD
:103200000B48FFF7D9FF210054310A48FFF7D4FFDC
:10321000210070310848FFF7CFFF21008C310748AB
:10322000FFF7CAFF10BDC04600100240000400486E
:1032300000080048000C0048001000480014004836
:10324000F0B5DE4657464E464546E0B583B013001E
:1032500003273E001640920801241440A446DA08D1
:103260003A4001925C092740DB090F241C40A1462B
:10327000002416E0072C46D8056A5246954342467C
:103280001543056205682B4033430360490848D065
:1032900063465B009C46019B9B000193BF00B60008
:1032A0000134CB07F2D507252540AD004B46AB4096
:1032B00098460123A3409B4663009A460323524647
:1032C00093400F22AA40924645685A46954362466B
:1032D000154345608568DB431D40019A15438560B1
:1032E000C5681D403D43C560022EC3D005682B4014
:1032F00033430360072C0DD8036A5246934342467A
:1033000013430362C2E7456A52469543424615435A
:103310004562B7E7436A52469343424613434362CA
:10332000B4E703B03CBC90469946A246AB46F0BD1C
:1033300010B50548054BC360FEF73CFF0448054B3C
:10334000C360FEF737FF10BD1C07002000040040DB
:103350000C0700200020004010B504000378012B6A
:1033600019D063681968A068FCF74CFF80B2013877
:1033700080B2E268002313606168E2688968516086
:10338000E2689062E26813616368DB68E268FF21CB
:103390008B43D36010BD144B984214D0134B9C4206
:1033A000DFD1134BD969802252001143D9611969C9
:1033B0000A431A6100221A6102211320FFF78CFBD5
:1033C0000C4BA360CDE70A4BD96902200143D961B8
:1033D0001A6902431A6100221A6102210E30FFF7B6
:1033E0007BFB044BA360D9E71C0700200C070020DF
:1033F00000100240006CDC02C3680139D962C36866
:1034000001225A61C26800235362C2681361436893
:103410005B68002B04D0C268D36801210B43D360E2
:10342000C36805221A607047C26800231360C2682F
:103430001361C268D368FF218B43D3607047C046D5
:10344000C3680139D962C36801225A61C3680C326A
:103450001A60C3681A69D207FBD500221A61704747
:1034600010B50400C36800221A610378042B04D04D
:1034700063685B682000984710BD023B0370FFF74C
:10348000D3FFF5E710B574460348FFF7E9FF2000C6
:10349000FEF756FB10BDC0461C07002010B5744651
:1034A0000348FFF7DDFF2000FEF74AFB10BDC046D2
:1034B0000C07002000230360436083607047C04610
:1034C000024A136880210B431360704700380140A3
:1034D000F8B50600846E2768E569256272B6AB060A
:1034E00007D530000830A18CC9B2FEF7B1FDE569FF
:1034F000F5E73B060DD47B0604D56B0602D54023C9
:103500009F43276062B6F8BD80233A009A43226049
:10351000F1E72B06EFD530002830FEF7FBFD002841
:10352000F2DB80B22085E569F3E7C04610B574464A
:103530000348FFF7CDFF2000FEF702FB10BDC04699
:103540002C07002010B5074C074A00212000FEF789
:103550007BFE064BA366064BE36603211B20FFF7A9
:10356000BBFA10BD2C070020C13400080038014010
:10357000006CDC0270B5846E23680125AB432360C8
:10358000C06EFCF73FFEE06023682B43236070BDF4
:1035900010B5846E40238A68134363600123CA68B0
:1035A0001343A3602E23FF334A6813432360096843
:1035B000FFF7E0FF01235B42236210BD10B5002935
:1035C00005D00379012B04D0FFF7E2FF10BD0649B7
:1035D000F7E7064B9842F7D1054A94698023DB014F
:1035E00023439361F0E7C046C44C01082C07002038
:1035F0000010024010B504000379022B00D010BD6A
:10360000806EFFF757FF044B9C42F8D1034A936941
:1036100003490B409361F2E72C07002000100240A1
:10362000FFBFFFFF80234022C250704710B58022A9
:10363000835801310124A143C9188150180010BDDD
:1036400070B50E4B1B6DC00018180D4B9C466044A6
:1036500085886544C688B6B2B005800D002342084F
:103660009A4204D95A00AC5A8C520133F7E7F20758
:1036700002D55B00EA5CCA5470BDC046005C0040E5
:103680000060004030B50B4B1B6DC00018180A4B92
:103690009C4660440588654493B243800020531CD7
:1036A0005B08834204D94300CC5AEC520130F6E760
:1036B00030BDC046005C00400060004010B50248CC
:1036C000FFF7A4F810BDC0469C07002070B50400A9
:1036D0000378012B00D070BD0B4B984203D0200023
:1036E000FFF706F9F7E7094AD16980231B040B436A
:1036F000D361074D01232B6403211F20FFF7ECF951
:1037000000232B64EBE7C0469C070020001002401A
:10371000005C00407E23C25CFE3B1343DBB2014AE7
:10372000D3647047005C0040F0B583B001900C009A
:103730008B1C9B00844663445F6803233A681340F4
:103740003BD0022B3CD9032B02D1C025ED0001E078
:103750008025AD001D4B1E6DE300F6181C4B9C46EA
:1037600066447B69002B09D000237380398A019855
:10377000FFF75CFF80B2308020231D43BB69002B24
:1037800013D07B8A3E2B1DD9013B5B1120221343B2
:103790009BB29B029BB2F380798A0198FFF746FFA8
:1037A00080B2B08080239B011D43084BA200D158FA
:1037B000D1502543D55003B0F0BD8025AD00C9E7F9
:1037C0000025C7E701335B08E3E7C046005C004023
:1037D0000060004010B504000D4B00221A655A64C9
:1037E0008032DA644368DB68002B0DD09E2212021F
:1037F000074B1A642000FFF715FF064BE36000211A
:103800002000FFF791FF10BD9C221202F0E7C04696
:10381000005C0040D44C01088900084BCB58C02202
:103820009201134005D080225201934203D002201E
:1038300070470020FCE70120FAE7C046005C00402A
:103840008900064BCA583023134003D0102B03D0F5
:10385000022070470020FCE70120FAE7005C0040EE
:1038600010B5094B1B6DC9005B1808498C466344B1
:103870009C886444002303E05900605A505201338D
:10388000032BF9D910BDC046005C00400060004029
:10389000054889000A58054B1A40C0239B015A402D
:1038A000034B13430B507047005C00408FB7FFFF82
:1038B0008080000070B50C008B1C9B00C018426813
:1038C000556969682B685B1A168A9E4200D31E00F0
:1038D000AB689C46614432002000FFF7D3FE6B6862
:1038E0009C4666446E600549A4006358044A134030
:1038F00030225340034A1343635070BD005C0040C4
:10390000BF87FFFF80800000F0B583B005000F2463
:103910000C40A200364BD258A31C9B00C3185E6813
:10392000CB0622D43249A0004358324A1A408023A1
:103930001B021343435073695A681B689A420FD3A2
:103940000122A2402B8993432B81A31C9B00EB18DF
:103950005B689B68002B1AD0E1B22800984716E0FC
:10396000E1B22800FFF7A6FF11E02149A00043586B
:10397000204F3B4080273B434350130509D5A31CF0
:103980009B00EB185B685B68E1B22800984703B0C6
:10399000F0BDB769E0B20190BB687A6894466344B1
:1039A0001900FFF74DFE7B68C3187B603A689342AD
:1039B00002D2738A83420FD90122A2406B899343BA
:1039C0006B810234A4002C196368DB68002BDED005
:1039D000019928009847DAE70549A4006258064B88
:1039E0001A40C0239B015A40044B13436350CEE757
:1039F000005C00400F07FFFF8FB7FFFF80800000D3
:103A000070B575461C4B5C6CE2435A64630519D46F
:103A100023051BD4E30403D5174B9B6C1B041ED555
:103A2000A30506D5154B5B68DB68002B01D0134856
:103A3000984723041CD521001048FFF765FF0E4B63
:103A40005C6CF6E70D48FEF753FFE1E70A4A136C9A
:103A500008210B4313640948FEF770FFDAE7064AB2
:103A6000136C08218B4313640448FEF771FFD7E7FA
:103A70002800FEF765F870BD005C00409C07002040
:103A8000054889000A58054B1A4080235B015A40BB
:103A9000034B13430B507047005C00408FB7FFFF90
:103AA00080800000054889000B58054A1340102209
:103AB0005340044A13430B507047C046005C00401B
:103AC000BF87FFFF808000008A00094BD358C022C7
:103AD0009201134093420AD0054889000A58054BC9
:103AE0001A4080239B015A40034B13430B507047ED
:103AF000005C00408FB7FFFF808000008A00084B09
:103B0000D25830231340302B09D0054889000B5878
:103B1000044A134020225340034A13430B5070477A
:103B2000005C0040BF87FFFF80800000024B012245
:103B30001A70024A9A6070472C080020003000403A
:103B4000144B1A68144B9A4221D0144A5169FC2331
:103B5000DB030B4353619023DB0500225A601049BD
:103B600099601049D960104959611A621132FF32C7
:103B70005A620E4A1A601B695B0701D40020704725
:103B80009023DB051B695B07FAD40120F7E70120CE
:103B9000F5E7C046F03F0020EFBEADDE001002406A
:103BA000000CFFFFA80401A8FFF9000003F32A6836
:103BB00080B500AFFFF7C4FF00280AD062B6074BFC
:103BC00000221A60064B83F30888064B1B6898474F
:103BD000FEE7FFF78BF8BD4680BDC046F03F0020F2
:103BE0005022002004C8FF1F7047C046F0B5CE46E3
:103BF00000B582B00700009101921E000B23994688
:103C000081444C4604E030210FE0009B002B15D08E
:103C100001990098FCF77CFBCDB201990098FCF764
:103C2000F1FA0090092DEED93721013C4D1925708C
:103C3000002EEAD0013E002EEAD1E6E74B461B1BE0
:103C4000781C22783A70013B07000134002BF7D131
:103C500002B004BC9146F0BDF0B5DE4657464E4674
:103C60004546E0B583B08146080001929A46002B94
:103C700013D1042201231A43904653460F2B01D936
:103C80000F239A460F239C46CC4463460093674615
:103C90009226760000239B4603E00222EAE71F00FB
:103CA00076080A210500FCF733FBCCB20A21280074
:103CB000FCF7A8FA7B1E30341C70092D08D9F207D6
:103CC000EDD5023F20233B701F3B9C46E344E7E7D2
:103CD000274A5946575C3800009AD21A01990029A0
:103CE0001AD08A4218D90A0016E04546ED0706D5D3
:103CF000012341469943884623002E2111E0454681
:103D0000AD0703D55978013A02330AE0230008E0F1
:103D1000013A002A13D0A1465C1C19782029E4D06E
:103D200023004C4601344D4629704646F607EFD431
:103D30005646013E5546002D01D0B246E8E72E29F1
:103D400000D0A14643465B0707D5202805D0202395
:103D50004A4613701F3B9C46E1444B46581C1F705B
:103D600003B03CBC90469946A246AB46F0BDC04667
:103D70006C4E0108F0B583B001900E1C1400092AA6
:103D800000D90924A300194A9F58301CFCF7EAFB0C
:103D90000500FDF793FA011C301CFDF769F8061CBD
:103DA0003800FDF78BFA311CFCF74CFFFC2189052C
:103DB000FCF7F0FBFCF7D6FB0600874201D8C61BD8
:103DC000013500230A2229000198FFF70FFF002C7C
:103DD00001D103B0F0BD451C2E23037023000A223D
:103DE00031002800FFF702FFF3E7C046804E0108CC
:103DF000F8B506000C1C17003249201CFCF79EFB8E
:103E0000002808D1FE218905201CFCF783FB00282F
:103E10002CD1002516E02C4D01352B78002B0CD031
:103E20002849201CFCF78AFB002806D02549201CC5
:103E3000FCF72CFD041C0135EFE7013D2D78002D2A
:103E400000D0013F201CFCF78DFB63282BD9023FDB
:103E5000002F2CDB3A00211C3000FFF78BFF002FD6
:103E600028D1002D01D005700130F8BD174D2B78F9
:103E7000002B0DD0FE218905201CFCF74BFB0028F0
:103E800006D01049201CFCF7DDFE041C0135EEE7CE
:103E90000F49201CFCF752FB002802D0013D2D7871
:103EA000CDE70025CBE70928D2D9013FD0E700278D
:103EB000D0E70138431E1B78302BFAD02E2BD0D1FF
:103EC0000138CEE700007A446C4E0108A84E010884
:103ED0006F12833AF8B5CE46474680B580460C1C33
:103EE00016000021201CFCF70FFB00280DD1002537
:103EF0003249201CFCF70EFB002812D02F49201C51
:103F0000FCF7A0FE041C013DF2E74346581C302399
:103F10004246137049E02949201CFCF7B7FC041CF9
:103F200001352649201CFCF709FB0028F3D1201C91
:103F3000FDF75AF93030434618702049201CFCF731
:103F400081FE011C43469F1C2E2342465370002EC7
:103F500015D0741E002E14D00E1C081CFDF744F959
:103F60000A21FCF7BFFA7B1C99463031397013499E
:103F7000301CFCF767FE011C26004F46E9E70626C9
:103F8000E7E765233B70002D13DBBC1C2B237B7004
:103F90000A212800FCF7C0F9303020700A212800DF
:103FA000FCF7A0FAA01C303161700CBC9046994619
:103FB000F8BDBC1C383B7B706D42E9E70000204136
:103FC0000389012B06D943685A1C42601970038982
:103FD000013B038100207047F0B5DE4657464E4650
:103FE0004546E0B58DB0804601910392002720231D
:103FF0000293BFE1002502E02B3B1D4301363378DD
:104000002D2BF9D02B2B08D0302B09D0202B0AD008
:10401000622B0AD11E331D43F0E7273B1D43EDE71A
:10402000203B1D43EAE71D43E8E7002404E0A2002B
:1040300014196200D418019E731C019333789B46B7
:10404000303BDBB2092BF2D95B462A2B04D1039B10
:104050001A1D03921B78EAE72E2B12D040231D4332
:1040600000239A465B466C2B27D04C2B25D05B4611
:10407000443BDAB2342A00D934E19300C54AD3581C
:104080009F4600239A4606E0524692005244500052
:1040900082469A440191019B591C1B789B46303BF8
:1040A000DBB2092BF0D95B462A2B04D1039B1A1DE6
:1040B00003921B78E8E70191D4E7019A1378002B6B
:1040C000D5D0013201929B46D1E70822F3E01023BC
:1040D0009D43039B1A1D03921B78002B00D10BE11B
:1040E00005AA137091460D2302AA944663449B4689
:1040F000EEE010232A009A43039B191D03911B68CD
:104100009946002B03D06B0612D4CB4605E0A24B98
:104110009946F8E701239C46E3445B461B78002B55
:1041200000D1EDE05346013B9A46F3D51500CFE0B0
:104130009A4B9A46E9E7039B1A1D03921B680B935F
:104140000B9B002B09DB6B071CD505AB2B221A70D0
:104150000D2002AB9C4660440BE008231D4305ABD9
:104160002D221A700B9B5B420B930D2002AB9C46D9
:1041700060440B9900230A22FFF738FD834605AB04
:104180009946A5E0AB0607D505AB20221A700D2095
:1041900002AB9C466044ECE705A8EAE7039B1A1DC6
:1041A00003921B680B936B0601D50F239A460B995C
:1041B0005346220005A8FFF74FFD834605AB9946FD
:1041C00086E02B0615D5039B1A1D03921B680B93E3
:1041D0000B980021FCF79EF9002817D16B0735D505
:1041E00005AB2B221A700D2302AA9446634499460C
:1041F0001CE0039B0733072293431A000832039203
:1042000018685968FDF7ECF80B90E1E708231D43A7
:1042100005AB2D221A700B9B802212069446634434
:104220000B930D2302AA9446634499460B98FF21F1
:10423000C905FCF769F9002816D001234B449B46B9
:1042400019234A46137005AB994641E0AB0608D5E1
:1042500005AB20221A700D2302AA944663449946A6
:10426000E4E705AB9946E1E75B46462B0CD0652BAE
:1042700013D00B996B0619D452464846FFF77AFDC6
:10428000834605AB994623E00B9952464846FFF713
:10429000AFFD834605AB99461AE00B995246484656
:1042A000FFF718FE834605AB994611E00922E4E7C3
:1042B0000A2200E01022039B191D03911B680B9337
:1042C0000B99002305A8FFF791FC834605AB99469F
:1042D0005B464A469B1AE41A14D4EB0625D53023D4
:1042E000029310E005AB5A461A7099460D2302AAB4
:1042F000944663449B46EBE705AB99469B46E7E74C
:104300001500E5E70024AB0727D42C232B4217D058
:10431000EB0615D543461B689B684A46551C117829
:10432000404698470137A9460AE020230293EAE76E
:1043300043461B689B680299404698470137013CF9
:10434000002CF5D109E043461B689B684A46551C82
:104350001178404698470137A946CB45F3D807E086
:1043600043461B689B680299404698470137013CC9
:10437000002CF5D1019B5E1C1978002910D025294D
:1043800000D137E643461B689B6840469847013793
:104390000196EFE7984D0108784E0108FF7F000075
:1043A00038000DB03CBC90469946A246AB46F0BDE5
:1043B000024B0360426001817047C046B44E010861
:1043C0000CB410B584B00C1E10DD02006846FFF777
:1043D000EFFF07AA039206996846FFF7FDFD019BD0
:1043E00000221A70844202DC601E00E0002004B04B
:1043F00010BC08BC02B0184702290BD0032903D017
:10440000012909D000207047032A07D8D2000448A8
:104410008018F8E70348F6E70348F4E70020F2E7DE
:10442000B04F0108144F0108604F010810B572B673
:104430000248FEF74BF862B610BDC04638080020AF
:1044400010B50400022902D003290FD010BD72B6A6
:10445000094A0121FEF708FA084A02212000FEF766
:1044600003FA0748FDF7FEFF62B6EFE772B60448AD
:10447000FDF7EEFF62B6E9E7C44E0108E04E010821
:10448000380800201C4A916980239B000B439361EC
:104490001A4B00225A601A490A609B68DB0705D54F
:1044A000164A916803235B420B439360134B9B684E
:1044B000DB07FBD4114BDA6801218A43DA60996883
:1044C000802212060A439A600C4B9B68002BFBDB90
:1044D0000A4B1B68DB0704D5084A136801210B430C
:1044E0001360064A936801210B439360034B1B68DA
:1044F000DB07FBD57047C046001002400024014096
:10450000082701400A4B1A681A6000225A601A6292
:1045100007215961DA6098629A6803390A439A6000
:10452000034B9B685B07FBD4014B186C80B2704750
:1045300000240140084B1A681A6080225A60FA2150
:10454000C9041962002159619A62044ADA609A68C2
:1045500004310A439A60704700240140C00480007F
:10456000084B9B68DB070CD5064B9B685B0708D59F
:10457000044A936810210B439360024B9B68DB064F
:10458000FBD4704700240140F8B58023DB055A6A4C
:10459000264B1B68D31A26498B4236D9234B1A6007
:1045A000244B9B685B0718D40027234A1168A0237B
:1045B0005B040B4313600024002600250F2C10D849
:1045C00080208002FFF79EFF2D188020C002FFF799
:1045D00099FF36180134A4B2F0E7FFF7C1FF0127B5
:1045E000E3E736092D09144A136814490B40136098
:1045F000002F15D112487043000B124B1E887043D8
:104600002900FBF7FFFD104B18800F4B00229B5E2B
:10461000632B08DD0D495622885AC01800B2F8BD38
:10462000FFF788FFE6E701204042F8E72803002073
:104630004FC300000024014008270140FFFFBFFED8
:10464000C8190000BAF7FF1FE00C00202C0300205F
:1046500010B5044A136813601B0600D410BD0EF099
:1046600071FBFBE70024014010B57446FFF7F0FF33
:104670002000FDF765FA10BD0121024A13788B4333
:1046800013707047D0040020002330B504000A786E
:104690007C2A00D100222578954204D1002A0CD032
:1046A00001340131F3E70A78002A04D001317C2A71
:1046B000F9D10133EAE701235B42180030BD000065
:1046C00030B5037800212D2B01D101300131037861
:1046D0000A252B3B5A425341C31800201A78013354
:1046E0001400303C092C07D94D2A0FD06B2A06D074
:1046F000472A07D1064B04E068430019EEE7FA2386
:104700009B005843002900D0404230BD014BF8E7E0
:1047100000CA9A3B40420F0070470000194BF0B5A9
:10472000D6469A46184B46464F469946174B24257F
:104730009846C0B5164E534684215859C905FCF712
:1047400081FAFCF751FD2C0037003060243C4B46C9
:1047500084211859C905FCF775FAFCF745FD434655
:10476000786004CF1B19801A04345860AC42EED133
:104770002834283625009C2CDDD11CBC9046994657
:10478000A246F0BD78030020A0030020581C0020A2
:10479000D01C002070470000086810B5FFF790FF9C
:1047A0000122034B2E331870024B1A7010BDC04605
:1047B000481D0020B00400207047000010B50868B4
:1047C000FFF77EFF10BD000010B50868FFF778FF07
:1047D00010BD000010B5094C0522230030331A70BB
:1047E0000868FFF76DFF86239B009C4608226444FF
:1047F000034B2060C01760601A7010BD481D002078
:10480000D0040020B523064A5B00D35C01205B077F
:1048100005D4044B1878043843425841C0B270475D
:104820002C0300209C070020034AD16980239B05AC
:104830000B43D3617047C0460010024070B5FFF7CC
:104840001BFF6420FDF728F910236425044C237016
:104850002800FDF721F92378002BF9D170BDC0465F
:10486000D004002010B5FFF707FF0BF0C3F910BD0F
:1048700070B50D0002280AD10868FFF721FF040077
:104880006868FFF71DFF01B220B20AF00DFE022298
:10489000024B1A700EF056FA70BDC046561C00202E
:1048A000F7B5A027A02600240A4D7F00F6002100BE
:1048B00002233A00002000950EF012FC064B320055
:1048C00018682900036802341B689847F02CEED161
:1048D000F7BDC046602B0020BC1F002010B50400AF
:1048E0000AF07CFE002CFBD110BD000010B5FDF7D6
:1048F000DBF810BD70B504000D000CF04DFA00227D
:10490000144B1A70944224D00123134E33709442F6
:1049100005DD2868FFF7D4FE01380DF091F9012C70
:1049200005DD6868FFF7CCFE01380DF089F9022C2F
:1049300005DDA868FFF7C4FE01380DF081F9032CEE
:1049400005DDE868FFF7BCFE01380DF079F90023BA
:10495000337070BDA52A0020630E002070B50D00D5
:1049600002280FD10868FFF7ABFE04006868FFF764
:10497000A7FE01B220B20AF097FD0122024B1A7085
:104980000EF0E0F970BDC046561C00200422044B16
:1049900002E0002204C30A00511E002AF9D1704728
:1049A00050280040074B34331A7882431A70064B64
:1049B0001A78104318702023044A11880B4313807F
:1049C0007047C046481D00204A0E0020541C00209D
:1049D000034B187803231840434258417047C046A0
:1049E000D0040020034B044A1880022311780B43A3
:1049F00013707047D2040020D00400200123024A23
:104A000011784B4013707047D00400200FB4074B4F
:104A100007B51B68181E04D005AA04990192FFF778
:104A2000DBFA03B008BC04B01847C046BC1F002026
:104A300010B5064C012804D021680548FFF7E6FFB1
:104A400010BD0868FFF73CFE2060F9E7C4040020B1
:104A50005756010870B505000A4C012805D02921D8
:104A600009486156FFF7D2FF70BD0868FFF728FEBE
:104A700040B22934431C02D100232370F4E725708F
:104A8000F2E7C046481D00205C53010810B5084CF1
:104A9000012804D021680748FFF7B8FF10BD086857
:104AA000FFF70EFEC117091AC90F21600248F3E78C
:104AB000E80C002021530108B8590108F0B5D6468A
:104AC0004F464646C0B51C4886B0FFF79FFFFDF72E
:104AD00019F81A4B04009846194B1A4F9A460023AE
:104AE000E169CA5C552A24D04646A568E01CAC465C
:104AF000651CED7FC07FAD00AD59E268A946A56990
:104B00000138002D00D13D0004954D4603956546C2
:104B10000190009402955046FFF778FF2000FCF7C3
:104B2000F9FF041EDBD106B01CBC90469946A24694
:104B3000F0BD0133D5E7C046F0570108585F0108C2
:104B400037580108615E010870B5094C094D0434FD
:104B5000231F1968002907D1074B1B78002B02D0AF
:104B60000648FFF753FF70BD2800FFF74FFFEEE741
:104B70001C5E01089B510108600E0020CD53010806
:104B800070B50D48FFF742FF0C4C0D4E0D4D61887E
:104B900023880904194305D0E388A2881B04134322
:104BA000B34203D10848FFF731FF70BD2800FFF77B
:104BB0002DFF0A34EBE7C046945301082C5A010834
:104BC0007194000846680108BE58010810B5094CE8
:104BD000012803D1086803783F2B05D1563421887A
:104BE0000548FFF713FF10BDFFF76AFD563420801C
:104BF000F9E7C0462C0300202153010810B5FFF748
:104C0000C3FC01000148FFF701FF10BDCA590108AC
:104C100010B5012810D1086803783F2B0CD0FFF79E
:104C20004FFD042808D880B20EF0D6FD0423044AB4
:104C300011880B43138010BD0248FFF7E7FEFAE727
:104C4000541C00205E56010810B5FFF7C1FE002875
:104C500003D00348FFF7DAFE10BD0248FAE7C0466A
:104C6000585701086157010870B500240B48FFF739
:104C7000CDFE0AF02FFC0A48FFF7C8FE0948FFF7EF
:104C8000C5FE094E094D315F28000234FFF7BEFE14
:104C9000082CF8D10648FFF7B9FE70BD5E58010830
:104CA0008A5801089158010874030020A45801088B
:104CB000BE58010837B5FA240500E400012D00DCD8
:104CC00037BD01A968460AF02BFC019A00990348F8
:104CD000FFF79CFE2000FCF7DFFEEFE7E15701083D
:104CE00010B50B00012804DD0A490B48FFF78EFEC2
:104CF00010BD012809D107491868FFF7C5FC002835
:104D0000F2DB064BC0B21870F2E70422044B1A70B3
:104D1000EEE7C046C855010814510108622A002078
:104D2000A62A002010B50EF00BFD0248FFF76EFE1C
:104D300010BDC0466A56010810B50B0001280BD102
:104D40000D491868FFF7A0FC002805D10B48FFF7B4
:104D50005DFE0AF0E3FC10BD0948FFF757FE802313
:104D6000084A1B01D1690B43D3616022064B5A608C
:104D70009F321A60FEE7C0462156010825560108F9
:104D80004456010800100240002C004010B50249B2
:104D90000248FFF73BFE10BDD04F01089B510108B0
:104DA000F0B5CE464746042480B583B02200804645
:104DB0000E0001A822490FF0DBFDB523214A5B005C
:104DC000D25C214B224200D1204B214F00243B607A
:104DD0006B46DD1C01239946013E38684A4603684C
:104DE00029005B689847002815D02978082901D048
:104DF0007F2907D1002CF0D001A8013CFFF706FE67
:104E0000A4B2EAE70D290BD11248FFF7FFFD0023FA
:104E100042460120135503B00CBC90469946F0BDA4
:104E20001F29DAD9B442D8DA3868002802D00368DA
:104E30009B68984741462A78631C0A559CB2CCE788
:104E4000BC4901082C0300202C0700203808002052
:104E5000BC1F0020BE5801080FB413B5084C2068D1
:104E6000002809D005AB07480193FFF7CFFD019A51
:104E700004992068FFF7B0F816BC08BC04B01847C6
:104E8000BC1F0020D066010870B506000D00012887
:104E900007D10B681B783F2B03D11B48FFF7DCFFC2
:104EA00070BD0022194C1A491A4822700BF048FCB8
:104EB000012E16D12868FFF703FC0500002D08D14C
:104EC0002223154A012011880B43138009F002F8B0
:104ED000E6E72378002BF3D11048FCF7DDFD013D18
:104EE000ECE7FFF7C9FBFA250120FFF77BFDAD00DA
:104EF000FFF76EFD0028E3D12378002BE0D12800D6
:104F0000FCF7CAFDF4E7C046D2590108642A002024
:104F1000E3590108EB590108541C00201027000038
:104F200070B5BC24084D6400012803D108680378DB
:104F30003F2B04D1295F0548FFF78EFF70BDFFF7B7
:104F4000BFFB2853FAE7C0462C030020165A01087D
:104F5000F8B5012822D1086803783F2B1ED0FFF74F
:104F6000AFFB02281AD8912400250E4BE4001B5CED
:104F70000D4F5C430D4B0E4EE4187B8FAB4200DCB3
:104F8000F8BDAB00E05807F05DFDFCF7D7F9020073
:104F90000B003000FFF73AFD0135EEE70548FFF75B
:104FA0005BFFEDE7845E0108481D00207C0E0020B9
:104FB000265301082B53010810B5012803D10868B6
:104FC00003783F2B03D10848FFF746FF10BD074980
:104FD000FFF75AFB002803D00548FFF717FDF5E758
:104FE0000EF09AFC0348F8E7AF5101089A720108E5
:104FF000CE510108DF510108F0B54F46D64646466E
:10500000C0B503780A272B3B5A425341C018037896
:10501000302B08D143786F2B2AD0782B2AD0622BE3
:1050200001D1083F023001235B429A46213305003B
:105030000026012499462B782E2B1DD03022524277
:10504000904698444246102A03D949468A43073A73
:105050009046B84513D239005046FBF7D3F8B0421A
:105060000BD9631E5A1E93417E43E41A464404E062
:105070000827D7E71027D5E700240135DBE7012C07
:1050800000D100244D2B10D06B2B03D0472B02D125
:10509000093400E00334002C09DB002C0ED1300071
:1050A0001CBC90469946A246F0BD0634F3E730009A
:1050B0003900FBF7A7F801340600ECE77E43013C1A
:1050C000EBE7000010B5064C012804D02168054824
:1050D000FFF79CFC10BD0868FFF78EFF2060F9E722
:1050E000580E00205251010810B5064C012804D07A
:1050F00021680548FFF78AFC10BD0868FFF77CFFB0
:105100002060F9E7540E00200D510108431E70B5D0
:1051100006000D00012B03D8086803783F2B03D14C
:105120000D48FFF799FE70BDFFF7CAFA0B4C23003C
:1051300030331870012E0CD06868FFF75DFF002334
:105140008622920094460822644409C4044B1A70D3
:10515000E9E700200300F3E73C570108481D002061
:10516000D004002010B5002805D10C4B0C4859681C
:10517000FFF74CFC10BD01280CD1086803783F2BC9
:1051800008D0FFF739FFFCF799F8FBF7EBF9034B71
:105190005860EFE70348FFF75FFEEBE72C030020C2
:1051A0003853010846530108F0B5C6460D0000B556
:1051B000022822D02348FFF74FFEE023F8265B01A8
:1051C00000249846F827204D360441462B891F4875
:1051D000DA080A40590939400A43190431405B078B
:1051E0000A431B0C21001A430134FFF70FFC023560
:1051F000202CEAD104BC9046F0BD0868FFF760FAA5
:1052000004001F28F6DC6868FFF7F6FEE022F821AC
:10521000C30012021340490142010A40F82113431E
:10522000020C0A4013430722400B10400434064A84
:1052300003436400A3522023054A11880B431380C3
:10524000D8E7C046415201082C03002056520108FD
:10525000541C002070B50D0090B0002829D0022801
:1052600027DCB523184A5B00D35C5B0721D40228F6
:1052700021D14868FFF7C0FE0A2444432E6830005D
:10528000FCF754F9114D0200310023002800FCF70F
:1052900053FF28004025230002220D49FCF74CFF54
:1052A0000C4E2A00230069463000FCF7F7FE021E70
:1052B00004D110B070BDFA24E400DFE70648694667
:1052C00003681B689847ECE72C0300205407002074
:1052D000BE580108340700203808002010B50B4CD8
:1052E000012803D1086803783F2B05D15434218865
:1052F0000748FFF7B1FD10BDFFF77EFE054B000527
:10530000000D543420805861F5E7C0462C0300207E
:10531000FD5201080074004010B5012803D108684F
:1053200003783F2B03D10448FFF796FD10BDFFF72C
:1053300063FEFFF7A1F9F9E77D530108F0B5C64612
:1053400000B5037805002D2B00D088E0012701353A
:105350002800FFF7B5F9FBF767FF041C2B781A004C
:10536000303AD2B2092A33D96B2B03D04D2B01D05E
:10537000472B00D1013502222B7893432C2B08D1E7
:10538000FE239B05984601352E78303EF3B2092B5B
:1053900020D920222B789343452B0DD101352800AD
:1053A000FFF78EF9060080464346002B24DCF343CA
:1053B000DB179E43002E29D12B786D2B46D02CD89D
:1053C0004D2B41D06B2B30D0472B33D126492DE0CC
:1053D0000135C3E725494046FBF758FA80463000BF
:1053E000FBF722FF4146FBF72DFC011C201CFBF7BD
:1053F000D1F80135041CC7E7201C1C49FBF722FC2F
:1054000001235B429C46041CE044CDE7201C174965
:10541000FBF73CFA0136041CCCE7702B1DD0752B32
:1054200019D06E2B06D1104911E01149201CFBF751
:1054300009FC041C002F03D080231B069C466444F7
:10544000201C04BC9046F0BD0A49EFE70849201C27
:10545000FBF71CFAEDE70749F9E70749F7E70027EB
:105460002B2B00D074E772E7286B6E4E00002041B2
:1054700000007A4400247449A5D4685370B501280B
:1054800016D10E4B09681D000A78002A11D11A7036
:105490002800FFF753FF0A4C20602800FFF7ACFDFF
:1054A00060600AF059F90122064B1A700BF074FC87
:1054B00070BD1A7001310133E6E7C046782A00203A
:1054C0002C2B0020571C0020F0B5C64600B53B4BE6
:1054D0000F6882B006000D00380019009846FFF7EB
:1054E000D3F80400012E1ED1002838DB3448FFF722
:1054F0008DFA282300265C43324B7034324FE41877
:105500002068FBF71BFF009001913200A36F296810
:1055100038000136FFF77AFA04340A2EF0D102B0CF
:1055200004BC9046F0BD022E17D128496868FFF7E9
:10553000ABF8002813D1282300226343214C1B1908
:1055400001301A6704330A28FAD10122204B3900AE
:1055500020481A70FFF75AFAE1E7042E05D01E4AD8
:1055600041461E48FFF778FCD9E76868FFF7A8F8BE
:105570000600A868FFF740FD0700E868FFF7DEFEB9
:105580000A2363439B191A000E493A32920057507E
:1055900001221C339B0058500D4B1A702023104AD7
:1055A00011880B431380FBF7C9FE3A00009001916C
:1055B00031000C48FFF72AFAB1E7C046E85001086D
:1055C000655201082C0300207D5201089852010801
:1055D000B00400209E520108645E0108BA5201081E
:1055E000541C0020E5520108F8B506000D00002803
:1055F0003AD13E4DE86DFBF7A1FE3D4C02000B0099
:1056000020003C49FFF702FA286EFBF797FE0200E4
:105610000B0020003849FFF7F9F9686EFBF78EFEA2
:1056200002000B0020003549FFF7F0F9A86EFBF7E8
:1056300085FE02000B0020003149FFF7E7F92B003F
:10564000FC33986FFBF77AFE02000B0020002D4917
:10565000FFF7DCF9E86EFBF771FE02000B0020009B
:105660002949FFF7D3F9F8BD0868284F03783F2B85
:105670002DD03900FFF708F8041E28DB022E17D1C1
:105680006868FFF75BFE021C032C20D82000174B34
:10569000FAF7A4FD0207090CDA6501221C4B1A7007
:1056A000E1E71A66F9E7FC339A67F6E7DA66F4E7AA
:1056B000032E0CD117496868FEF7E6FF002806D1D3
:1056C000A868FFF73BFE002C06D0012C0BD0390058
:1056D0001148FFF79BF9C6E76A220121034BFF320D
:1056E00058669954D9E7014B9866D6E72C030020F9
:1056F0001B540108985E0108315401083654010812
:1057000041540108555401084D5401088C550108B5
:10571000B0040020465401085C54010810B5040090
:10572000012803D00648FFF771F910BD0868FFF79C
:1057300005FE044B0833D867034B1C70F5E7C046E1
:10574000FD530108481D0020B00400209023F0B54F
:10575000C6461700124ADB00D35800B51B680E007E
:105760001D78042D17D10F4C010023681A6818000A
:10577000126890460E22C04720683A000368310044
:105780001B68984720682A00036807491B689847E8
:1057900004BC9046F0BD0022044B1A70F8E7C046E6
:1057A00038080020BC1F0020DE5E0108220E002009
:1057B00000B50B4B987C032809D80A4A0A4BFAF724
:1057C0000DFD0207020B00211160084A1A6000BD9E
:1057D00007491160074AF9E705491160064AF5E7EC
:1057E000481D0020141C0020B80400208093DC1405
:1057F000001C4E0EC02D29390070383970B51C4977
:105800008B7C488F023BDBB2012B02D8C823584364
:1058100070BD8A1DD57F01220E002A400D009436EE
:105820009835144B36682D681B68CC8EAE420CD070
:105830007F3343431049013209884A435343621E70
:1058400042436F205043C018E2E7012C0DD1802560
:10585000AD000A4B4959994207D8094953420B40B8
:10586000E121C9008C466344E4E7064BE2E7C04609
:10587000481D002044050020D80400209F86010018
:1058800090330000983A0000054B10B5063300B283
:10589000D8870EF059FC0122024B1A7010BDC04689
:1058A000481D0020B00400200B0010B50749012856
:1058B00003D00748FFF7D0FA10BD1868FEF7E4FEE2
:1058C000431CF9D00138FFF7DFFFF5E7F850010876
:1058D000A0510108134B70B5984222D8124C2300F6
:1058E00090331B68002B18D1FBF79EFC0F49FBF788
:1058F000A9F9051C608FFBF7E1FC011C281CFBF7D4
:10590000A1F982239B00051CE058FBF7D7FC011C82
:10591000281CFAF7BBFFFBF767FC0122044BA064CD
:105920001A7070BD40420F00481D00200000FA436D
:10593000B0040020144B70B5984224D8134C2300B7
:1059400090331B68002B1AD1002818D0FBF76CFC91
:105950000F49FBF777F9051C608FFBF7AFFC011CC3
:10596000281CFBF76FF982239B00051CE058FBF70E
:10597000A5FC011C281CFAF789FFFBF735FC012266
:10598000044BE0641A7070BD204E0000481D0020DA
:105990000000FA43B0040020831E762B05D80122B4
:1059A000024B2D331870024B1A707047481D0020AF
:1059B000B004002010B5002802D0C31E112B0AD855
:1059C000B223054A5B00D0520DF0BAFE0122034B10
:1059D0001A7008F08BFC10BD2C030020B0040020CE
:1059E000084B10B5C218084B9A4209D8074BFC3334
:1059F00058660DF0A5FE0122054B1A7008F076FCE2
:105A000010BDC046C0AB76FF80841E002C03002072
:105A1000B004002010B5012803D1086803783F2B9B
:105A200006D1064B0648FC33596EFEF7EFFF10BD5A
:105A3000FFF7E2FAFFF7D4FFF9E7C0462C03002096
:105A40002851010801220D4B70B55A7306280AD15E
:105A500000225D8F0A4C0B4995420ADC00223A2154
:105A60001A8799875A7101220533D877064B1A7025
:105A700070BD9600A1510132EEE7C046481D0020DE
:105A800004130020000016C3B00400200122034BC1
:105A90002E331870024B1A707047C046481D002004
:105AA000B00400200122034B0833D867024B1A7060
:105AB0007047C046481D0020B0040020054B9842A6
:105AC00000D918008023044A9B00D0500122034BC8
:105AD0001A7070470046C323481D0020B004002000
